{
  "address": "0x9fE46736679d2D9a65F0992F2272dE9f3c7fa6e0",
  "abi": [
    {
      "inputs": [],
      "name": "CannotTradeSameToken",
      "type": "error"
    },
    {
      "inputs": [],
      "name": "CannotTradeWithSelf",
      "type": "error"
    },
    {
      "inputs": [],
      "name": "InsufficientAllowance",
      "type": "error"
    },
    {
      "inputs": [],
      "name": "InsufficientBalance",
      "type": "error"
    },
    {
      "inputs": [],
      "name": "InvalidAddress",
      "type": "error"
    },
    {
      "inputs": [],
      "name": "InvalidAmount",
      "type": "error"
    },
    {
      "inputs": [],
      "name": "OnlyBuyer",
      "type": "error"
    },
    {
      "inputs": [],
      "name": "OnlySeller",
      "type": "error"
    },
    {
      "inputs": [],
      "name": "TradeIsExpired",
      "type": "error"
    },
    {
      "inputs": [],
      "name": "TradeIsNotPending",
      "type": "error"
    },
    {
      "anonymous": false,
      "inputs": [
        {
          "indexed": true,
          "internalType": "address",
          "name": "seller",
          "type": "address"
        },
        {
          "indexed": true,
          "internalType": "address",
          "name": "buyer",
          "type": "address"
        },
        {
          "indexed": false,
          "internalType": "address",
          "name": "tokenToSell",
          "type": "address"
        },
        {
          "indexed": false,
          "internalType": "address",
          "name": "tokenToBuy",
          "type": "address"
        }
      ],
      "name": "TradeCanceled",
      "type": "event"
    },
    {
      "anonymous": false,
      "inputs": [
        {
          "indexed": true,
          "internalType": "address",
          "name": "seller",
          "type": "address"
        },
        {
          "indexed": true,
          "internalType": "address",
          "name": "buyer",
          "type": "address"
        }
      ],
      "name": "TradeConfirmed",
      "type": "event"
    },
    {
      "anonymous": false,
      "inputs": [
        {
          "indexed": true,
          "internalType": "address",
          "name": "seller",
          "type": "address"
        },
        {
          "indexed": true,
          "internalType": "address",
          "name": "buyer",
          "type": "address"
        },
        {
          "indexed": false,
          "internalType": "address",
          "name": "tokenToSell",
          "type": "address"
        },
        {
          "indexed": false,
          "internalType": "address",
          "name": "tokenToBuy",
          "type": "address"
        },
        {
          "indexed": false,
          "internalType": "uint256",
          "name": "amountOfTokenToSell",
          "type": "uint256"
        },
        {
          "indexed": false,
          "internalType": "uint256",
          "name": "amountOfTokenToBuy",
          "type": "uint256"
        },
        {
          "indexed": false,
          "internalType": "uint256",
          "name": "deadline",
          "type": "uint256"
        }
      ],
      "name": "TradeCreated",
      "type": "event"
    },
    {
      "anonymous": false,
      "inputs": [
        {
          "indexed": true,
          "internalType": "address",
          "name": "seller",
          "type": "address"
        },
        {
          "indexed": true,
          "internalType": "address",
          "name": "buyer",
          "type": "address"
        }
      ],
      "name": "TradeExpired",
      "type": "event"
    },
    {
      "inputs": [
        {
          "internalType": "address",
          "name": "_buyer",
          "type": "address"
        },
        {
          "internalType": "address",
          "name": "_tokenToSell",
          "type": "address"
        },
        {
          "internalType": "address",
          "name": "_tokenToBuy",
          "type": "address"
        },
        {
          "internalType": "uint256",
          "name": "_amountOfTokenToSell",
          "type": "uint256"
        },
        {
          "internalType": "uint256",
          "name": "_amountOfTokenToBuy",
          "type": "uint256"
        },
        {
          "internalType": "uint256",
          "name": "_deadline",
          "type": "uint256"
        }
      ],
      "name": "addTrade",
      "outputs": [],
      "stateMutability": "nonpayable",
      "type": "function"
    },
    {
      "inputs": [
        {
          "internalType": "uint256",
          "name": "index",
          "type": "uint256"
        }
      ],
      "name": "cancelTrade",
      "outputs": [],
      "stateMutability": "nonpayable",
      "type": "function"
    },
    {
      "inputs": [
        {
          "internalType": "address",
          "name": "seller",
          "type": "address"
        },
        {
          "internalType": "uint256",
          "name": "index",
          "type": "uint256"
        }
      ],
      "name": "closeTrade",
      "outputs": [],
      "stateMutability": "nonpayable",
      "type": "function"
    },
    {
      "inputs": [
        {
          "internalType": "address",
          "name": "userAddress",
          "type": "address"
        }
      ],
      "name": "getLatestTradeIndex",
      "outputs": [
        {
          "internalType": "uint256",
          "name": "",
          "type": "uint256"
        }
      ],
      "stateMutability": "view",
      "type": "function"
    },
    {
      "inputs": [
        {
          "internalType": "address",
          "name": "userAddress",
          "type": "address"
        },
        {
          "internalType": "uint256",
          "name": "index",
          "type": "uint256"
        }
      ],
      "name": "getTrade",
      "outputs": [
        {
          "components": [
            {
              "internalType": "address",
              "name": "seller",
              "type": "address"
            },
            {
              "internalType": "address",
              "name": "buyer",
              "type": "address"
            },
            {
              "internalType": "address",
              "name": "tokenToSell",
              "type": "address"
            },
            {
              "internalType": "address",
              "name": "tokenToBuy",
              "type": "address"
            },
            {
              "internalType": "uint256",
              "name": "amountOfTokenToSell",
              "type": "uint256"
            },
            {
              "internalType": "uint256",
              "name": "amountOfTokenToBuy",
              "type": "uint256"
            },
            {
              "internalType": "uint256",
              "name": "deadline",
              "type": "uint256"
            },
            {
              "internalType": "enum TrustMe.TradeStatus",
              "name": "status",
              "type": "uint8"
            }
          ],
          "internalType": "struct TrustMe.Trade",
          "name": "",
          "type": "tuple"
        }
      ],
      "stateMutability": "view",
      "type": "function"
    },
    {
      "inputs": [
        {
          "internalType": "address",
          "name": "userAddress",
          "type": "address"
        }
      ],
      "name": "getTrades",
      "outputs": [
        {
          "components": [
            {
              "internalType": "address",
              "name": "seller",
              "type": "address"
            },
            {
              "internalType": "address",
              "name": "buyer",
              "type": "address"
            },
            {
              "internalType": "address",
              "name": "tokenToSell",
              "type": "address"
            },
            {
              "internalType": "address",
              "name": "tokenToBuy",
              "type": "address"
            },
            {
              "internalType": "uint256",
              "name": "amountOfTokenToSell",
              "type": "uint256"
            },
            {
              "internalType": "uint256",
              "name": "amountOfTokenToBuy",
              "type": "uint256"
            },
            {
              "internalType": "uint256",
              "name": "deadline",
              "type": "uint256"
            },
            {
              "internalType": "enum TrustMe.TradeStatus",
              "name": "status",
              "type": "uint8"
            }
          ],
          "internalType": "struct TrustMe.Trade[]",
          "name": "",
          "type": "tuple[]"
        }
      ],
      "stateMutability": "view",
      "type": "function"
    },
    {
      "inputs": [
        {
          "internalType": "address",
          "name": "",
          "type": "address"
        },
        {
          "internalType": "uint256",
          "name": "",
          "type": "uint256"
        }
      ],
      "name": "userToTrades",
      "outputs": [
        {
          "internalType": "address",
          "name": "seller",
          "type": "address"
        },
        {
          "internalType": "address",
          "name": "buyer",
          "type": "address"
        },
        {
          "internalType": "address",
          "name": "tokenToSell",
          "type": "address"
        },
        {
          "internalType": "address",
          "name": "tokenToBuy",
          "type": "address"
        },
        {
          "internalType": "uint256",
          "name": "amountOfTokenToSell",
          "type": "uint256"
        },
        {
          "internalType": "uint256",
          "name": "amountOfTokenToBuy",
          "type": "uint256"
        },
        {
          "internalType": "uint256",
          "name": "deadline",
          "type": "uint256"
        },
        {
          "internalType": "enum TrustMe.TradeStatus",
          "name": "status",
          "type": "uint8"
        }
      ],
      "stateMutability": "view",
      "type": "function"
    }
  ],
  "transactionHash": "0xfc7e1f2ef119352973b36b684f498dbbdd13bc0ae030b5ee99121cdc23af1919",
  "args": [],
  "numDeployments": 1,
  "solcInputHash": "b3647f2d9bb2f01cc8ad392389eb5fba",
  "bytecode": "0x608060405234801561001057600080fd5b50612c1b806100206000396000f3fe608060405234801561001057600080fd5b506004361061007d5760003560e01c80634bfad7c01161005b5780634bfad7c0146100ea57806381e622641461011a578063c6a5b1b014610136578063ca142f751461016d5761007d565b8063097d1da21461008257806309ec6cc71461009e578063229b5296146100ba575b600080fd5b61009c60048036038101906100979190612261565b61019d565b005b6100b860048036038101906100b391906122a1565b6109b1565b005b6100d460048036038101906100cf91906122ce565b610ff7565b6040516100e1919061230a565b60405180910390f35b61010460048036038101906100ff91906122ce565b61104e565b604051610111919061250c565b60405180910390f35b610134600480360381019061012f919061252e565b61129d565b005b610150600480360381019061014b9190612261565b611956565b6040516101649897969594939291906125d9565b60405180910390f35b61018760048036038101906101829190612261565b611a48565b60405161019491906126f9565b60405180910390f35b818160008060008473ffffffffffffffffffffffffffffffffffffffff1673ffffffffffffffffffffffffffffffffffffffff16815260200190815260200160002082815481106101f1576101f0612715565b5b9060005260206000209060080201604051806101000160405290816000820160009054906101000a900473ffffffffffffffffffffffffffffffffffffffff1673ffffffffffffffffffffffffffffffffffffffff1673ffffffffffffffffffffffffffffffffffffffff1681526020016001820160009054906101000a900473ffffffffffffffffffffffffffffffffffffffff1673ffffffffffffffffffffffffffffffffffffffff1673ffffffffffffffffffffffffffffffffffffffff1681526020016002820160009054906101000a900473ffffffffffffffffffffffffffffffffffffffff1673ffffffffffffffffffffffffffffffffffffffff1673ffffffffffffffffffffffffffffffffffffffff1681526020016003820160009054906101000a900473ffffffffffffffffffffffffffffffffffffffff1673ffffffffffffffffffffffffffffffffffffffff1673ffffffffffffffffffffffffffffffffffffffff1681526020016004820154815260200160058201548152602001600682015481526020016007820160009054906101000a900460ff1660028111156103a6576103a561236f565b5b60028111156103b8576103b761236f565b5b8152505090503373ffffffffffffffffffffffffffffffffffffffff16816020015173ffffffffffffffffffffffffffffffffffffffff1614610427576040517f86efbb5500000000000000000000000000000000000000000000000000000000815260040160405180910390fd5b6000600281111561043b5761043a61236f565b5b8160e0015160028111156104525761045161236f565b5b14610489576040517f1cf3d4b400000000000000000000000000000000000000000000000000000000815260040160405180910390fd5b428160c0015110156104c7576040517ffcdc12da00000000000000000000000000000000000000000000000000000000815260040160405180910390fd5b6000816060015190508160a001518173ffffffffffffffffffffffffffffffffffffffff1663dd62ed3e33306040518363ffffffff1660e01b8152600401610510929190612744565b602060405180830381865afa15801561052d573d6000803e3d6000fd5b505050506040513d601f19601f820116820180604052508101906105519190612782565b1015610589576040517f13be252b00000000000000000000000000000000000000000000000000000000815260040160405180910390fd5b8160a001518173ffffffffffffffffffffffffffffffffffffffff166370a08231336040518263ffffffff1660e01b81526004016105c791906127af565b602060405180830381865afa1580156105e4573d6000803e3d6000fd5b505050506040513d601f19601f820116820180604052508101906106089190612782565b1015610640576040517ff4d678b800000000000000000000000000000000000000000000000000000000815260040160405180910390fd5b60008060008873ffffffffffffffffffffffffffffffffffffffff1673ffffffffffffffffffffffffffffffffffffffff168152602001908152602001600020868154811061069257610691612715565b5b9060005260206000209060080201604051806101000160405290816000820160009054906101000a900473ffffffffffffffffffffffffffffffffffffffff1673ffffffffffffffffffffffffffffffffffffffff1673ffffffffffffffffffffffffffffffffffffffff1681526020016001820160009054906101000a900473ffffffffffffffffffffffffffffffffffffffff1673ffffffffffffffffffffffffffffffffffffffff1673ffffffffffffffffffffffffffffffffffffffff1681526020016002820160009054906101000a900473ffffffffffffffffffffffffffffffffffffffff1673ffffffffffffffffffffffffffffffffffffffff1673ffffffffffffffffffffffffffffffffffffffff1681526020016003820160009054906101000a900473ffffffffffffffffffffffffffffffffffffffff1673ffffffffffffffffffffffffffffffffffffffff1673ffffffffffffffffffffffffffffffffffffffff1681526020016004820154815260200160058201548152602001600682015481526020016007820160009054906101000a900460ff1660028111156108475761084661236f565b5b60028111156108595761085861236f565b5b8152505090506108983382600001518360a00151846060015173ffffffffffffffffffffffffffffffffffffffff16611c73909392919063ffffffff16565b6108cf81602001518260800151836040015173ffffffffffffffffffffffffffffffffffffffff16611cfc9092919063ffffffff16565b60018160e0019060028111156108e8576108e761236f565b5b908160028111156108fc576108fb61236f565b5b815250503373ffffffffffffffffffffffffffffffffffffffff168773ffffffffffffffffffffffffffffffffffffffff167fc153f0a395c8e959bac6bf8d02d3af42e453b424765ddd79355f19fcbe0bd62360405160405180910390a3600080826000015173ffffffffffffffffffffffffffffffffffffffff1673ffffffffffffffffffffffffffffffffffffffff16815260200190815260200160002060006109a89190612016565b50505050505050565b8060008060003373ffffffffffffffffffffffffffffffffffffffff1673ffffffffffffffffffffffffffffffffffffffff1681526020019081526020016000208281548110610a0457610a03612715565b5b9060005260206000209060080201604051806101000160405290816000820160009054906101000a900473ffffffffffffffffffffffffffffffffffffffff1673ffffffffffffffffffffffffffffffffffffffff1673ffffffffffffffffffffffffffffffffffffffff1681526020016001820160009054906101000a900473ffffffffffffffffffffffffffffffffffffffff1673ffffffffffffffffffffffffffffffffffffffff1673ffffffffffffffffffffffffffffffffffffffff1681526020016002820160009054906101000a900473ffffffffffffffffffffffffffffffffffffffff1673ffffffffffffffffffffffffffffffffffffffff1673ffffffffffffffffffffffffffffffffffffffff1681526020016003820160009054906101000a900473ffffffffffffffffffffffffffffffffffffffff1673ffffffffffffffffffffffffffffffffffffffff1673ffffffffffffffffffffffffffffffffffffffff1681526020016004820154815260200160058201548152602001600682015481526020016007820160009054906101000a900460ff166002811115610bb957610bb861236f565b5b6002811115610bcb57610bca61236f565b5b8152505090503373ffffffffffffffffffffffffffffffffffffffff16816000015173ffffffffffffffffffffffffffffffffffffffff1614610c3a576040517f85d1f72600000000000000000000000000000000000000000000000000000000815260040160405180910390fd5b60006002811115610c4e57610c4d61236f565b5b8160e001516002811115610c6557610c6461236f565b5b14610c9c576040517f1cf3d4b400000000000000000000000000000000000000000000000000000000815260040160405180910390fd5b428160c001511015610cda576040517ffcdc12da00000000000000000000000000000000000000000000000000000000815260040160405180910390fd5b60008060003373ffffffffffffffffffffffffffffffffffffffff1673ffffffffffffffffffffffffffffffffffffffff1681526020019081526020016000208481548110610d2c57610d2b612715565b5b9060005260206000209060080201604051806101000160405290816000820160009054906101000a900473ffffffffffffffffffffffffffffffffffffffff1673ffffffffffffffffffffffffffffffffffffffff1673ffffffffffffffffffffffffffffffffffffffff1681526020016001820160009054906101000a900473ffffffffffffffffffffffffffffffffffffffff1673ffffffffffffffffffffffffffffffffffffffff1673ffffffffffffffffffffffffffffffffffffffff1681526020016002820160009054906101000a900473ffffffffffffffffffffffffffffffffffffffff1673ffffffffffffffffffffffffffffffffffffffff1673ffffffffffffffffffffffffffffffffffffffff1681526020016003820160009054906101000a900473ffffffffffffffffffffffffffffffffffffffff1673ffffffffffffffffffffffffffffffffffffffff1673ffffffffffffffffffffffffffffffffffffffff1681526020016004820154815260200160058201548152602001600682015481526020016007820160009054906101000a900460ff166002811115610ee157610ee061236f565b5b6002811115610ef357610ef261236f565b5b815250509050610f3081600001518260800151836040015173ffffffffffffffffffffffffffffffffffffffff16611cfc9092919063ffffffff16565b806020015173ffffffffffffffffffffffffffffffffffffffff163373ffffffffffffffffffffffffffffffffffffffff167fc507f525d6d853333e5a7ff1b6f856ba9c2b6abf28b37fce30f42a84a56a2eae83604001518460600151604051610f9b929190612744565b60405180910390a3600080826000015173ffffffffffffffffffffffffffffffffffffffff1673ffffffffffffffffffffffffffffffffffffffff1681526020019081526020016000206000610ff19190612016565b50505050565b600060016000808473ffffffffffffffffffffffffffffffffffffffff1673ffffffffffffffffffffffffffffffffffffffff1681526020019081526020016000208054905061104791906127f9565b9050919050565b60606000808373ffffffffffffffffffffffffffffffffffffffff1673ffffffffffffffffffffffffffffffffffffffff168152602001908152602001600020805480602002602001604051908101604052809291908181526020016000905b828210156112925783829060005260206000209060080201604051806101000160405290816000820160009054906101000a900473ffffffffffffffffffffffffffffffffffffffff1673ffffffffffffffffffffffffffffffffffffffff1673ffffffffffffffffffffffffffffffffffffffff1681526020016001820160009054906101000a900473ffffffffffffffffffffffffffffffffffffffff1673ffffffffffffffffffffffffffffffffffffffff1673ffffffffffffffffffffffffffffffffffffffff1681526020016002820160009054906101000a900473ffffffffffffffffffffffffffffffffffffffff1673ffffffffffffffffffffffffffffffffffffffff1673ffffffffffffffffffffffffffffffffffffffff1681526020016003820160009054906101000a900473ffffffffffffffffffffffffffffffffffffffff1673ffffffffffffffffffffffffffffffffffffffff1673ffffffffffffffffffffffffffffffffffffffff1681526020016004820154815260200160058201548152602001600682015481526020016007820160009054906101000a900460ff16600281111561126d5761126c61236f565b5b600281111561127f5761127e61236f565b5b81525050815260200190600101906110ae565b505050509050919050565b8585858585600073ffffffffffffffffffffffffffffffffffffffff163373ffffffffffffffffffffffffffffffffffffffff1603611308576040517fe6c4247b00000000000000000000000000000000000000000000000000000000815260040160405180910390fd5b600073ffffffffffffffffffffffffffffffffffffffff168573ffffffffffffffffffffffffffffffffffffffff160361136e576040517fe6c4247b00000000000000000000000000000000000000000000000000000000815260040160405180910390fd5b600073ffffffffffffffffffffffffffffffffffffffff168473ffffffffffffffffffffffffffffffffffffffff16036113d4576040517fe6c4247b00000000000000000000000000000000000000000000000000000000815260040160405180910390fd5b600073ffffffffffffffffffffffffffffffffffffffff168373ffffffffffffffffffffffffffffffffffffffff160361143a576040517fe6c4247b00000000000000000000000000000000000000000000000000000000815260040160405180910390fd5b8273ffffffffffffffffffffffffffffffffffffffff168473ffffffffffffffffffffffffffffffffffffffff160361149f576040517f131b3bb000000000000000000000000000000000000000000000000000000000815260040160405180910390fd5b8473ffffffffffffffffffffffffffffffffffffffff163373ffffffffffffffffffffffffffffffffffffffff1603611504576040517f9cbdca7200000000000000000000000000000000000000000000000000000000815260040160405180910390fd5b6000820361153e576040517f2c5211c600000000000000000000000000000000000000000000000000000000815260040160405180910390fd5b60008103611578576040517f2c5211c600000000000000000000000000000000000000000000000000000000815260040160405180910390fd5b818473ffffffffffffffffffffffffffffffffffffffff166370a08231336040518263ffffffff1660e01b81526004016115b291906127af565b602060405180830381865afa1580156115cf573d6000803e3d6000fd5b505050506040513d601f19601f820116820180604052508101906115f39190612782565b101561162b576040517ff4d678b800000000000000000000000000000000000000000000000000000000815260040160405180910390fd5b60008a905061165d33308b8473ffffffffffffffffffffffffffffffffffffffff16611c73909392919063ffffffff16565b60006040518061010001604052803373ffffffffffffffffffffffffffffffffffffffff1681526020018e73ffffffffffffffffffffffffffffffffffffffff1681526020018d73ffffffffffffffffffffffffffffffffffffffff1681526020018c73ffffffffffffffffffffffffffffffffffffffff1681526020018b81526020018a8152602001898152602001600060028111156117015761170061236f565b5b81525090506000803373ffffffffffffffffffffffffffffffffffffffff1673ffffffffffffffffffffffffffffffffffffffff16815260200190815260200160002081908060018154018082558091505060019003906000526020600020906008020160009091909190915060008201518160000160006101000a81548173ffffffffffffffffffffffffffffffffffffffff021916908373ffffffffffffffffffffffffffffffffffffffff16021790555060208201518160010160006101000a81548173ffffffffffffffffffffffffffffffffffffffff021916908373ffffffffffffffffffffffffffffffffffffffff16021790555060408201518160020160006101000a81548173ffffffffffffffffffffffffffffffffffffffff021916908373ffffffffffffffffffffffffffffffffffffffff16021790555060608201518160030160006101000a81548173ffffffffffffffffffffffffffffffffffffffff021916908373ffffffffffffffffffffffffffffffffffffffff1602179055506080820151816004015560a0820151816005015560c0820151816006015560e08201518160070160006101000a81548160ff021916908360028111156118d3576118d261236f565b5b021790555050508c73ffffffffffffffffffffffffffffffffffffffff163373ffffffffffffffffffffffffffffffffffffffff167f93cacdac2498913f9df2a3e0425994b2734377cd0da474f457c31fbf1124a9988e8e8e8e8e60405161193f95949392919061282d565b60405180910390a350505050505050505050505050565b6000602052816000526040600020818154811061197257600080fd5b9060005260206000209060080201600091509150508060000160009054906101000a900473ffffffffffffffffffffffffffffffffffffffff16908060010160009054906101000a900473ffffffffffffffffffffffffffffffffffffffff16908060020160009054906101000a900473ffffffffffffffffffffffffffffffffffffffff16908060030160009054906101000a900473ffffffffffffffffffffffffffffffffffffffff16908060040154908060050154908060060154908060070160009054906101000a900460ff16905088565b611a5061203a565b6000808473ffffffffffffffffffffffffffffffffffffffff1673ffffffffffffffffffffffffffffffffffffffff1681526020019081526020016000208281548110611aa057611a9f612715565b5b9060005260206000209060080201604051806101000160405290816000820160009054906101000a900473ffffffffffffffffffffffffffffffffffffffff1673ffffffffffffffffffffffffffffffffffffffff1673ffffffffffffffffffffffffffffffffffffffff1681526020016001820160009054906101000a900473ffffffffffffffffffffffffffffffffffffffff1673ffffffffffffffffffffffffffffffffffffffff1673ffffffffffffffffffffffffffffffffffffffff1681526020016002820160009054906101000a900473ffffffffffffffffffffffffffffffffffffffff1673ffffffffffffffffffffffffffffffffffffffff1673ffffffffffffffffffffffffffffffffffffffff1681526020016003820160009054906101000a900473ffffffffffffffffffffffffffffffffffffffff1673ffffffffffffffffffffffffffffffffffffffff1673ffffffffffffffffffffffffffffffffffffffff1681526020016004820154815260200160058201548152602001600682015481526020016007820160009054906101000a900460ff166002811115611c5557611c5461236f565b5b6002811115611c6757611c6661236f565b5b81525050905092915050565b611cf6846323b872dd60e01b858585604051602401611c9493929190612880565b604051602081830303815290604052907bffffffffffffffffffffffffffffffffffffffffffffffffffffffff19166020820180517bffffffffffffffffffffffffffffffffffffffffffffffffffffffff8381831617835250505050611d82565b50505050565b611d7d8363a9059cbb60e01b8484604051602401611d1b9291906128b7565b604051602081830303815290604052907bffffffffffffffffffffffffffffffffffffffffffffffffffffffff19166020820180517bffffffffffffffffffffffffffffffffffffffffffffffffffffffff8381831617835250505050611d82565b505050565b6000611de4826040518060400160405280602081526020017f5361666545524332303a206c6f772d6c6576656c2063616c6c206661696c65648152508573ffffffffffffffffffffffffffffffffffffffff16611e499092919063ffffffff16565b9050600081511115611e445780806020019051810190611e049190612918565b611e43576040517f08c379a0000000000000000000000000000000000000000000000000000000008152600401611e3a906129c8565b60405180910390fd5b5b505050565b6060611e588484600085611e61565b90509392505050565b606082471015611ea6576040517f08c379a0000000000000000000000000000000000000000000000000000000008152600401611e9d90612a5a565b60405180910390fd5b6000808673ffffffffffffffffffffffffffffffffffffffff168587604051611ecf9190612aeb565b60006040518083038185875af1925050503d8060008114611f0c576040519150601f19603f3d011682016040523d82523d6000602084013e611f11565b606091505b5091509150611f2287838387611f2e565b92505050949350505050565b60608315611f90576000835103611f8857611f4885611fa3565b611f87576040517f08c379a0000000000000000000000000000000000000000000000000000000008152600401611f7e90612b4e565b60405180910390fd5b5b829050611f9b565b611f9a8383611fc6565b5b949350505050565b6000808273ffffffffffffffffffffffffffffffffffffffff163b119050919050565b600082511115611fd95781518083602001fd5b806040517f08c379a000000000000000000000000000000000000000000000000000000000815260040161200d9190612bc3565b60405180910390fd5b508054600082556008029060005260206000209081019061203791906120e9565b50565b604051806101000160405280600073ffffffffffffffffffffffffffffffffffffffff168152602001600073ffffffffffffffffffffffffffffffffffffffff168152602001600073ffffffffffffffffffffffffffffffffffffffff168152602001600073ffffffffffffffffffffffffffffffffffffffff168152602001600081526020016000815260200160008152602001600060028111156120e3576120e261236f565b5b81525090565b5b808211156121c457600080820160006101000a81549073ffffffffffffffffffffffffffffffffffffffff02191690556001820160006101000a81549073ffffffffffffffffffffffffffffffffffffffff02191690556002820160006101000a81549073ffffffffffffffffffffffffffffffffffffffff02191690556003820160006101000a81549073ffffffffffffffffffffffffffffffffffffffff02191690556004820160009055600582016000905560068201600090556007820160006101000a81549060ff0219169055506008016120ea565b5090565b600080fd5b600073ffffffffffffffffffffffffffffffffffffffff82169050919050565b60006121f8826121cd565b9050919050565b612208816121ed565b811461221357600080fd5b50565b600081359050612225816121ff565b92915050565b6000819050919050565b61223e8161222b565b811461224957600080fd5b50565b60008135905061225b81612235565b92915050565b60008060408385031215612278576122776121c8565b5b600061228685828601612216565b92505060206122978582860161224c565b9150509250929050565b6000602082840312156122b7576122b66121c8565b5b60006122c58482850161224c565b91505092915050565b6000602082840312156122e4576122e36121c8565b5b60006122f284828501612216565b91505092915050565b6123048161222b565b82525050565b600060208201905061231f60008301846122fb565b92915050565b600081519050919050565b600082825260208201905092915050565b6000819050602082019050919050565b61235a816121ed565b82525050565b6123698161222b565b82525050565b7f4e487b7100000000000000000000000000000000000000000000000000000000600052602160045260246000fd5b600381106123af576123ae61236f565b5b50565b60008190506123c08261239e565b919050565b60006123d0826123b2565b9050919050565b6123e0816123c5565b82525050565b610100820160008201516123fd6000850182612351565b5060208201516124106020850182612351565b5060408201516124236040850182612351565b5060608201516124366060850182612351565b5060808201516124496080850182612360565b5060a082015161245c60a0850182612360565b5060c082015161246f60c0850182612360565b5060e082015161248260e08501826123d7565b50505050565b600061249483836123e6565b6101008301905092915050565b6000602082019050919050565b60006124b982612325565b6124c38185612330565b93506124ce83612341565b8060005b838110156124ff5781516124e68882612488565b97506124f1836124a1565b9250506001810190506124d2565b5085935050505092915050565b6000602082019050818103600083015261252681846124ae565b905092915050565b60008060008060008060c0878903121561254b5761254a6121c8565b5b600061255989828a01612216565b965050602061256a89828a01612216565b955050604061257b89828a01612216565b945050606061258c89828a0161224c565b935050608061259d89828a0161224c565b92505060a06125ae89828a0161224c565b9150509295509295509295565b6125c4816121ed565b82525050565b6125d3816123c5565b82525050565b6000610100820190506125ef600083018b6125bb565b6125fc602083018a6125bb565b61260960408301896125bb565b61261660608301886125bb565b61262360808301876122fb565b61263060a08301866122fb565b61263d60c08301856122fb565b61264a60e08301846125ca565b9998505050505050505050565b6101008201600082015161266e6000850182612351565b5060208201516126816020850182612351565b5060408201516126946040850182612351565b5060608201516126a76060850182612351565b5060808201516126ba6080850182612360565b5060a08201516126cd60a0850182612360565b5060c08201516126e060c0850182612360565b5060e08201516126f360e08501826123d7565b50505050565b60006101008201905061270f6000830184612657565b92915050565b7f4e487b7100000000000000000000000000000000000000000000000000000000600052603260045260246000fd5b600060408201905061275960008301856125bb565b61276660208301846125bb565b9392505050565b60008151905061277c81612235565b92915050565b600060208284031215612798576127976121c8565b5b60006127a68482850161276d565b91505092915050565b60006020820190506127c460008301846125bb565b92915050565b7f4e487b7100000000000000000000000000000000000000000000000000000000600052601160045260246000fd5b60006128048261222b565b915061280f8361222b565b9250828203905081811115612827576128266127ca565b5b92915050565b600060a08201905061284260008301886125bb565b61284f60208301876125bb565b61285c60408301866122fb565b61286960608301856122fb565b61287660808301846122fb565b9695505050505050565b600060608201905061289560008301866125bb565b6128a260208301856125bb565b6128af60408301846122fb565b949350505050565b60006040820190506128cc60008301856125bb565b6128d960208301846122fb565b9392505050565b60008115159050919050565b6128f5816128e0565b811461290057600080fd5b50565b600081519050612912816128ec565b92915050565b60006020828403121561292e5761292d6121c8565b5b600061293c84828501612903565b91505092915050565b600082825260208201905092915050565b7f5361666545524332303a204552433230206f7065726174696f6e20646964206e60008201527f6f74207375636365656400000000000000000000000000000000000000000000602082015250565b60006129b2602a83612945565b91506129bd82612956565b604082019050919050565b600060208201905081810360008301526129e1816129a5565b9050919050565b7f416464726573733a20696e73756666696369656e742062616c616e636520666f60008201527f722063616c6c0000000000000000000000000000000000000000000000000000602082015250565b6000612a44602683612945565b9150612a4f826129e8565b604082019050919050565b60006020820190508181036000830152612a7381612a37565b9050919050565b600081519050919050565b600081905092915050565b60005b83811015612aae578082015181840152602081019050612a93565b60008484015250505050565b6000612ac582612a7a565b612acf8185612a85565b9350612adf818560208601612a90565b80840191505092915050565b6000612af78284612aba565b915081905092915050565b7f416464726573733a2063616c6c20746f206e6f6e2d636f6e7472616374000000600082015250565b6000612b38601d83612945565b9150612b4382612b02565b602082019050919050565b60006020820190508181036000830152612b6781612b2b565b9050919050565b600081519050919050565b6000601f19601f8301169050919050565b6000612b9582612b6e565b612b9f8185612945565b9350612baf818560208601612a90565b612bb881612b79565b840191505092915050565b60006020820190508181036000830152612bdd8184612b8a565b90509291505056fea2646970667358221220b830dee680e3fb24f245882c46bde22fe2175dbd47563e70fb636a98036cfbe064736f6c63430008110033",
  "devdoc": {
    "kind": "dev",
    "methods": {
      "addTrade(address,address,address,uint256,uint256,uint256)": {
        "details": "Create Trade to initialize a trade as a seller",
        "params": {
          "_amountOfTokenToBuy": "amount of token to buy",
          "_amountOfTokenToSell": "amount of token to sell",
          "_buyer": "address of the buyer",
          "_deadline": "deadline of the trade in unix timestamp",
          "_tokenToBuy": "address of the token to buy",
          "_tokenToSell": "address of the token to sell"
        }
      }
    },
    "version": 1
  },
  "userdoc": {
    "kind": "user",
    "methods": {},
    "version": 1
  },
  "storageLayout": {
    "storage": [
      {
        "astId": 821,
        "contract": "contracts/TrustMe.sol:TrustMe",
        "label": "userToTrades",
        "offset": 0,
        "slot": "0",
        "type": "t_mapping(t_address,t_array(t_struct(Trade)815_storage)dyn_storage)"
      }
    ],
    "types": {
      "t_address": {
        "encoding": "inplace",
        "label": "address",
        "numberOfBytes": "20"
      },
      "t_array(t_struct(Trade)815_storage)dyn_storage": {
        "base": "t_struct(Trade)815_storage",
        "encoding": "dynamic_array",
        "label": "struct TrustMe.Trade[]",
        "numberOfBytes": "32"
      },
      "t_enum(TradeStatus)797": {
        "encoding": "inplace",
        "label": "enum TrustMe.TradeStatus",
        "numberOfBytes": "1"
      },
      "t_mapping(t_address,t_array(t_struct(Trade)815_storage)dyn_storage)": {
        "encoding": "mapping",
        "key": "t_address",
        "label": "mapping(address => struct TrustMe.Trade[])",
        "numberOfBytes": "32",
        "value": "t_array(t_struct(Trade)815_storage)dyn_storage"
      },
      "t_struct(Trade)815_storage": {
        "encoding": "inplace",
        "label": "struct TrustMe.Trade",
        "members": [
          {
            "astId": 799,
            "contract": "contracts/TrustMe.sol:TrustMe",
            "label": "seller",
            "offset": 0,
            "slot": "0",
            "type": "t_address"
          },
          {
            "astId": 801,
            "contract": "contracts/TrustMe.sol:TrustMe",
            "label": "buyer",
            "offset": 0,
            "slot": "1",
            "type": "t_address"
          },
          {
            "astId": 803,
            "contract": "contracts/TrustMe.sol:TrustMe",
            "label": "tokenToSell",
            "offset": 0,
            "slot": "2",
            "type": "t_address"
          },
          {
            "astId": 805,
            "contract": "contracts/TrustMe.sol:TrustMe",
            "label": "tokenToBuy",
            "offset": 0,
            "slot": "3",
            "type": "t_address"
          },
          {
            "astId": 807,
            "contract": "contracts/TrustMe.sol:TrustMe",
            "label": "amountOfTokenToSell",
            "offset": 0,
            "slot": "4",
            "type": "t_uint256"
          },
          {
            "astId": 809,
            "contract": "contracts/TrustMe.sol:TrustMe",
            "label": "amountOfTokenToBuy",
            "offset": 0,
            "slot": "5",
            "type": "t_uint256"
          },
          {
            "astId": 811,
            "contract": "contracts/TrustMe.sol:TrustMe",
            "label": "deadline",
            "offset": 0,
            "slot": "6",
            "type": "t_uint256"
          },
          {
            "astId": 814,
            "contract": "contracts/TrustMe.sol:TrustMe",
            "label": "status",
            "offset": 0,
            "slot": "7",
            "type": "t_enum(TradeStatus)797"
          }
        ],
        "numberOfBytes": "256"
      },
      "t_uint256": {
        "encoding": "inplace",
        "label": "uint256",
        "numberOfBytes": "32"
      }
    }
  }
}