{
  "address": "0x250Dab09217A07eCFE2d00aC4F8943A29A45F3b4",
  "abi": [
    {
      "inputs": [],
      "name": "CannotTradeSameToken",
      "type": "error"
    },
    {
      "inputs": [],
      "name": "CannotTradeWithSelf",
      "type": "error"
    },
    {
      "inputs": [],
      "name": "IncorrectAmoutOfETHTransferred",
      "type": "error"
    },
    {
      "inputs": [],
      "name": "InsufficientBalance",
      "type": "error"
    },
    {
      "inputs": [],
      "name": "InvalidAddress",
      "type": "error"
    },
    {
      "inputs": [],
      "name": "InvalidInputs",
      "type": "error"
    },
    {
      "inputs": [],
      "name": "InvalidNFTInput",
      "type": "error"
    },
    {
      "inputs": [],
      "name": "InvalidTokenInput",
      "type": "error"
    },
    {
      "inputs": [],
      "name": "NotNftOwner",
      "type": "error"
    },
    {
      "inputs": [],
      "name": "OnlyBuyer",
      "type": "error"
    },
    {
      "inputs": [],
      "name": "OnlySeller",
      "type": "error"
    },
    {
      "inputs": [],
      "name": "OnlySellerOrBuyer",
      "type": "error"
    },
    {
      "inputs": [],
      "name": "TradeIsExpired",
      "type": "error"
    },
    {
      "inputs": [],
      "name": "TradeIsNotExpired",
      "type": "error"
    },
    {
      "inputs": [],
      "name": "TradeIsNotPending",
      "type": "error"
    },
    {
      "anonymous": false,
      "inputs": [
        {
          "indexed": true,
          "internalType": "uint256",
          "name": "tradeID",
          "type": "uint256"
        },
        {
          "indexed": true,
          "internalType": "address",
          "name": "seller",
          "type": "address"
        },
        {
          "indexed": true,
          "internalType": "address",
          "name": "buyer",
          "type": "address"
        }
      ],
      "name": "TradeCanceled",
      "type": "event"
    },
    {
      "anonymous": false,
      "inputs": [
        {
          "indexed": true,
          "internalType": "uint256",
          "name": "tradeID",
          "type": "uint256"
        },
        {
          "indexed": true,
          "internalType": "address",
          "name": "seller",
          "type": "address"
        },
        {
          "indexed": true,
          "internalType": "address",
          "name": "buyer",
          "type": "address"
        }
      ],
      "name": "TradeConfirmed",
      "type": "event"
    },
    {
      "anonymous": false,
      "inputs": [
        {
          "indexed": true,
          "internalType": "uint256",
          "name": "tradeID",
          "type": "uint256"
        },
        {
          "indexed": true,
          "internalType": "address",
          "name": "seller",
          "type": "address"
        },
        {
          "indexed": true,
          "internalType": "address",
          "name": "buyer",
          "type": "address"
        }
      ],
      "name": "TradeCreated",
      "type": "event"
    },
    {
      "anonymous": false,
      "inputs": [
        {
          "indexed": true,
          "internalType": "uint256",
          "name": "tradeID",
          "type": "uint256"
        },
        {
          "indexed": true,
          "internalType": "address",
          "name": "seller",
          "type": "address"
        },
        {
          "indexed": true,
          "internalType": "address",
          "name": "buyer",
          "type": "address"
        }
      ],
      "name": "TradeExpired",
      "type": "event"
    },
    {
      "anonymous": false,
      "inputs": [
        {
          "indexed": true,
          "internalType": "uint256",
          "name": "tradeID",
          "type": "uint256"
        },
        {
          "indexed": true,
          "internalType": "address",
          "name": "seller",
          "type": "address"
        },
        {
          "indexed": true,
          "internalType": "address",
          "name": "buyer",
          "type": "address"
        }
      ],
      "name": "TradeWithdrawn",
      "type": "event"
    },
    {
      "inputs": [
        {
          "components": [
            {
              "internalType": "uint256",
              "name": "tradeId",
              "type": "uint256"
            },
            {
              "internalType": "address",
              "name": "seller",
              "type": "address"
            },
            {
              "internalType": "address",
              "name": "buyer",
              "type": "address"
            },
            {
              "components": [
                {
                  "internalType": "address",
                  "name": "addressNFTToSell",
                  "type": "address"
                },
                {
                  "internalType": "uint256",
                  "name": "tokenIdNFTToSell",
                  "type": "uint256"
                },
                {
                  "internalType": "address",
                  "name": "addressNFTToBuy",
                  "type": "address"
                },
                {
                  "internalType": "uint256",
                  "name": "tokenIdNFTToBuy",
                  "type": "uint256"
                }
              ],
              "internalType": "struct TradeLib.NFT",
              "name": "nft",
              "type": "tuple"
            },
            {
              "components": [
                {
                  "internalType": "address",
                  "name": "tokenToSell",
                  "type": "address"
                },
                {
                  "internalType": "uint256",
                  "name": "amountOfTokenToSell",
                  "type": "uint256"
                },
                {
                  "internalType": "address",
                  "name": "tokenToBuy",
                  "type": "address"
                },
                {
                  "internalType": "uint256",
                  "name": "amountOfTokenToBuy",
                  "type": "uint256"
                }
              ],
              "internalType": "struct TradeLib.Token",
              "name": "token",
              "type": "tuple"
            },
            {
              "components": [
                {
                  "internalType": "uint256",
                  "name": "amountOfETHToSell",
                  "type": "uint256"
                },
                {
                  "internalType": "uint256",
                  "name": "amountOfETHToBuy",
                  "type": "uint256"
                }
              ],
              "internalType": "struct TradeLib.Eth",
              "name": "eth",
              "type": "tuple"
            },
            {
              "internalType": "uint256",
              "name": "deadline",
              "type": "uint256"
            },
            {
              "internalType": "uint256",
              "name": "dateCreated",
              "type": "uint256"
            },
            {
              "internalType": "enum TradeLib.TradeStatus",
              "name": "status",
              "type": "uint8"
            }
          ],
          "internalType": "struct TradeLib.Trade",
          "name": "transactionInput",
          "type": "tuple"
        }
      ],
      "name": "addTrade",
      "outputs": [],
      "stateMutability": "payable",
      "type": "function"
    },
    {
      "inputs": [
        {
          "internalType": "uint256",
          "name": "_tradeID",
          "type": "uint256"
        }
      ],
      "name": "cancelTrade",
      "outputs": [],
      "stateMutability": "nonpayable",
      "type": "function"
    },
    {
      "inputs": [],
      "name": "checkExpiredTrades",
      "outputs": [],
      "stateMutability": "nonpayable",
      "type": "function"
    },
    {
      "inputs": [
        {
          "internalType": "uint256",
          "name": "_tradeID",
          "type": "uint256"
        }
      ],
      "name": "confirmTrade",
      "outputs": [],
      "stateMutability": "payable",
      "type": "function"
    },
    {
      "inputs": [],
      "name": "getPendingTradesIDs",
      "outputs": [
        {
          "internalType": "uint256[]",
          "name": "",
          "type": "uint256[]"
        }
      ],
      "stateMutability": "view",
      "type": "function"
    },
    {
      "inputs": [
        {
          "internalType": "uint256",
          "name": "_tradeID",
          "type": "uint256"
        }
      ],
      "name": "getTrade",
      "outputs": [
        {
          "components": [
            {
              "internalType": "uint256",
              "name": "tradeId",
              "type": "uint256"
            },
            {
              "internalType": "address",
              "name": "seller",
              "type": "address"
            },
            {
              "internalType": "address",
              "name": "buyer",
              "type": "address"
            },
            {
              "components": [
                {
                  "internalType": "address",
                  "name": "addressNFTToSell",
                  "type": "address"
                },
                {
                  "internalType": "uint256",
                  "name": "tokenIdNFTToSell",
                  "type": "uint256"
                },
                {
                  "internalType": "address",
                  "name": "addressNFTToBuy",
                  "type": "address"
                },
                {
                  "internalType": "uint256",
                  "name": "tokenIdNFTToBuy",
                  "type": "uint256"
                }
              ],
              "internalType": "struct TradeLib.NFT",
              "name": "nft",
              "type": "tuple"
            },
            {
              "components": [
                {
                  "internalType": "address",
                  "name": "tokenToSell",
                  "type": "address"
                },
                {
                  "internalType": "uint256",
                  "name": "amountOfTokenToSell",
                  "type": "uint256"
                },
                {
                  "internalType": "address",
                  "name": "tokenToBuy",
                  "type": "address"
                },
                {
                  "internalType": "uint256",
                  "name": "amountOfTokenToBuy",
                  "type": "uint256"
                }
              ],
              "internalType": "struct TradeLib.Token",
              "name": "token",
              "type": "tuple"
            },
            {
              "components": [
                {
                  "internalType": "uint256",
                  "name": "amountOfETHToSell",
                  "type": "uint256"
                },
                {
                  "internalType": "uint256",
                  "name": "amountOfETHToBuy",
                  "type": "uint256"
                }
              ],
              "internalType": "struct TradeLib.Eth",
              "name": "eth",
              "type": "tuple"
            },
            {
              "internalType": "uint256",
              "name": "deadline",
              "type": "uint256"
            },
            {
              "internalType": "uint256",
              "name": "dateCreated",
              "type": "uint256"
            },
            {
              "internalType": "enum TradeLib.TradeStatus",
              "name": "status",
              "type": "uint8"
            }
          ],
          "internalType": "struct TradeLib.Trade",
          "name": "",
          "type": "tuple"
        }
      ],
      "stateMutability": "view",
      "type": "function"
    },
    {
      "inputs": [
        {
          "internalType": "uint256",
          "name": "_tradeID",
          "type": "uint256"
        }
      ],
      "name": "getTradeStatus",
      "outputs": [
        {
          "internalType": "enum TradeLib.TradeStatus",
          "name": "",
          "type": "uint8"
        }
      ],
      "stateMutability": "view",
      "type": "function"
    },
    {
      "inputs": [
        {
          "internalType": "address",
          "name": "_user",
          "type": "address"
        }
      ],
      "name": "getTradesIDsByUser",
      "outputs": [
        {
          "internalType": "uint256[]",
          "name": "",
          "type": "uint256[]"
        }
      ],
      "stateMutability": "view",
      "type": "function"
    },
    {
      "inputs": [
        {
          "internalType": "address",
          "name": "",
          "type": "address"
        },
        {
          "internalType": "address",
          "name": "",
          "type": "address"
        },
        {
          "internalType": "uint256",
          "name": "",
          "type": "uint256"
        },
        {
          "internalType": "bytes",
          "name": "",
          "type": "bytes"
        }
      ],
      "name": "onERC721Received",
      "outputs": [
        {
          "internalType": "bytes4",
          "name": "",
          "type": "bytes4"
        }
      ],
      "stateMutability": "nonpayable",
      "type": "function"
    },
    {
      "inputs": [
        {
          "internalType": "uint256",
          "name": "",
          "type": "uint256"
        }
      ],
      "name": "pendingTradesIDs",
      "outputs": [
        {
          "internalType": "uint256",
          "name": "",
          "type": "uint256"
        }
      ],
      "stateMutability": "view",
      "type": "function"
    },
    {
      "inputs": [
        {
          "internalType": "uint256",
          "name": "",
          "type": "uint256"
        }
      ],
      "name": "tradeIDToTrade",
      "outputs": [
        {
          "internalType": "uint256",
          "name": "tradeId",
          "type": "uint256"
        },
        {
          "internalType": "address",
          "name": "seller",
          "type": "address"
        },
        {
          "internalType": "address",
          "name": "buyer",
          "type": "address"
        },
        {
          "components": [
            {
              "internalType": "address",
              "name": "addressNFTToSell",
              "type": "address"
            },
            {
              "internalType": "uint256",
              "name": "tokenIdNFTToSell",
              "type": "uint256"
            },
            {
              "internalType": "address",
              "name": "addressNFTToBuy",
              "type": "address"
            },
            {
              "internalType": "uint256",
              "name": "tokenIdNFTToBuy",
              "type": "uint256"
            }
          ],
          "internalType": "struct TradeLib.NFT",
          "name": "nft",
          "type": "tuple"
        },
        {
          "components": [
            {
              "internalType": "address",
              "name": "tokenToSell",
              "type": "address"
            },
            {
              "internalType": "uint256",
              "name": "amountOfTokenToSell",
              "type": "uint256"
            },
            {
              "internalType": "address",
              "name": "tokenToBuy",
              "type": "address"
            },
            {
              "internalType": "uint256",
              "name": "amountOfTokenToBuy",
              "type": "uint256"
            }
          ],
          "internalType": "struct TradeLib.Token",
          "name": "token",
          "type": "tuple"
        },
        {
          "components": [
            {
              "internalType": "uint256",
              "name": "amountOfETHToSell",
              "type": "uint256"
            },
            {
              "internalType": "uint256",
              "name": "amountOfETHToBuy",
              "type": "uint256"
            }
          ],
          "internalType": "struct TradeLib.Eth",
          "name": "eth",
          "type": "tuple"
        },
        {
          "internalType": "uint256",
          "name": "deadline",
          "type": "uint256"
        },
        {
          "internalType": "uint256",
          "name": "dateCreated",
          "type": "uint256"
        },
        {
          "internalType": "enum TradeLib.TradeStatus",
          "name": "status",
          "type": "uint8"
        }
      ],
      "stateMutability": "view",
      "type": "function"
    },
    {
      "inputs": [
        {
          "internalType": "uint256",
          "name": "",
          "type": "uint256"
        }
      ],
      "name": "tradeIdToETHFromSeller",
      "outputs": [
        {
          "internalType": "uint256",
          "name": "",
          "type": "uint256"
        }
      ],
      "stateMutability": "view",
      "type": "function"
    },
    {
      "inputs": [
        {
          "internalType": "address",
          "name": "",
          "type": "address"
        },
        {
          "internalType": "uint256",
          "name": "",
          "type": "uint256"
        }
      ],
      "name": "userToTradesIDs",
      "outputs": [
        {
          "internalType": "uint256",
          "name": "",
          "type": "uint256"
        }
      ],
      "stateMutability": "view",
      "type": "function"
    },
    {
      "inputs": [
        {
          "internalType": "uint256",
          "name": "_tradeID",
          "type": "uint256"
        }
      ],
      "name": "withdraw",
      "outputs": [],
      "stateMutability": "nonpayable",
      "type": "function"
    }
  ],
  "transactionHash": "0x8e7547b1279d2f0b6bf63c0f44880e5ebd17b6588af56bfb70f27c373ead5074",
  "args": [],
  "numDeployments": 4,
  "solcInputHash": "1f7c0a4204ff6448f3cfd5d659a75f69",
  "bytecode": "0x608060405234801561001057600080fd5b506149c1806100206000396000f3fe6080604052600436106100dd5760003560e01c80633cbc720b1161007f578063a25e4fb211610059578063a25e4fb2146102b4578063b36e88ba146102f9578063f3c8dd2814610336578063f5ff356714610373576100dd565b80633cbc720b1461021e5780636a4167271461025b5780639ec0507f14610298576100dd565b806317166c1d116100bb57806317166c1d1461015f5780632db25e051461017b5780632e1a7d4d146101b85780633628f397146101e1576100dd565b806304ecba17146100e257806309ec6cc7146100f9578063150b7a0214610122575b600080fd5b3480156100ee57600080fd5b506100f761039e565b005b34801561010557600080fd5b50610120600480360381019061011b9190613a1c565b6104ff565b005b34801561012e57600080fd5b5061014960048036038101906101449190613bed565b610b53565b6040516101569190613cab565b60405180910390f35b61017960048036038101906101749190613f13565b610b67565b005b34801561018757600080fd5b506101a2600480360381019061019d9190613a1c565b611158565b6040516101af9190614169565b60405180910390f35b3480156101c457600080fd5b506101df60048036038101906101da9190613a1c565b61145b565b005b3480156101ed57600080fd5b5061020860048036038101906102039190613a1c565b611aff565b6040516102159190614194565b60405180910390f35b34801561022a57600080fd5b5061024560048036038101906102409190613a1c565b611b17565b6040516102529190614194565b60405180910390f35b34801561026757600080fd5b50610282600480360381019061027d91906141af565b611b3b565b60405161028f9190614194565b60405180910390f35b6102b260048036038101906102ad9190613a1c565b611b6c565b005b3480156102c057600080fd5b506102db60048036038101906102d69190613a1c565b612515565b6040516102f0999897969594939291906142e6565b60405180910390f35b34801561030557600080fd5b50610320600480360381019061031b9190613a1c565b612762565b60405161032d9190614376565b60405180910390f35b34801561034257600080fd5b5061035d60048036038101906103589190614391565b61278f565b60405161036a919061446d565b60405180910390f35b34801561037f57600080fd5b50610388612825565b604051610395919061446d565b60405180910390f35b600060038054905090505b60008111156104fc5760006001600060036001856103c791906144be565b815481106103d8576103d76144f2565b5b9060005260206000200154815260200190815260200160002090504281600d0154116104e857600381600f0160006101000a81548160ff0219169083600481111561042657610425614038565b5b021790555061044060018361043b91906144be565b61287d565b8060020160009054906101000a900473ffffffffffffffffffffffffffffffffffffffff1673ffffffffffffffffffffffffffffffffffffffff168160010160009054906101000a900473ffffffffffffffffffffffffffffffffffffffff1673ffffffffffffffffffffffffffffffffffffffff1682600001547ffd7c45a041dff86f1992d67f3be178d8c527a53bef9d9c6fe1901411b9da156460405160405180910390a45b5080806104f490614521565b9150506103a9565b50565b600060016000838152602001908152602001600020905060003390506108068260405180610120016040529081600082015481526020016001820160009054906101000a900473ffffffffffffffffffffffffffffffffffffffff1673ffffffffffffffffffffffffffffffffffffffff1673ffffffffffffffffffffffffffffffffffffffff1681526020016002820160009054906101000a900473ffffffffffffffffffffffffffffffffffffffff1673ffffffffffffffffffffffffffffffffffffffff1673ffffffffffffffffffffffffffffffffffffffff168152602001600382016040518060800160405290816000820160009054906101000a900473ffffffffffffffffffffffffffffffffffffffff1673ffffffffffffffffffffffffffffffffffffffff1673ffffffffffffffffffffffffffffffffffffffff168152602001600182015481526020016002820160009054906101000a900473ffffffffffffffffffffffffffffffffffffffff1673ffffffffffffffffffffffffffffffffffffffff1673ffffffffffffffffffffffffffffffffffffffff1681526020016003820154815250508152602001600782016040518060800160405290816000820160009054906101000a900473ffffffffffffffffffffffffffffffffffffffff1673ffffffffffffffffffffffffffffffffffffffff1673ffffffffffffffffffffffffffffffffffffffff168152602001600182015481526020016002820160009054906101000a900473ffffffffffffffffffffffffffffffffffffffff1673ffffffffffffffffffffffffffffffffffffffff1673ffffffffffffffffffffffffffffffffffffffff1681526020016003820154815250508152602001600b8201604051806040016040529081600082015481526020016001820154815250508152602001600d8201548152602001600e8201548152602001600f820160009054906101000a900460ff1660048111156107ea576107e9614038565b5b60048111156107fc576107fb614038565b5b8152505082612908565b600082600701600101541115610894576108938260010160009054906101000a900473ffffffffffffffffffffffffffffffffffffffff1683600701600101548460070160000160009054906101000a900473ffffffffffffffffffffffffffffffffffffffff1673ffffffffffffffffffffffffffffffffffffffff166129919092919063ffffffff16565b5b600073ffffffffffffffffffffffffffffffffffffffff168260030160000160009054906101000a900473ffffffffffffffffffffffffffffffffffffffff1673ffffffffffffffffffffffffffffffffffffffff16146109b1578160030160000160009054906101000a900473ffffffffffffffffffffffffffffffffffffffff1673ffffffffffffffffffffffffffffffffffffffff166342842e0e308460010160009054906101000a900473ffffffffffffffffffffffffffffffffffffffff1685600301600101546040518463ffffffff1660e01b815260040161097e9392919061454a565b600060405180830381600087803b15801561099857600080fd5b505af11580156109ac573d6000803e3d6000fd5b505050505b600082600b01600001541115610a34578160010160009054906101000a900473ffffffffffffffffffffffffffffffffffffffff1673ffffffffffffffffffffffffffffffffffffffff166108fc83600b01600001549081150290604051600060405180830381858888f19350505050158015610a32573d6000803e3d6000fd5b505b81600b0160000154600460008581526020019081526020016000206000828254610a5e91906144be565b92505081905550600282600f0160006101000a81548160ff02191690836004811115610a8d57610a8c614038565b5b0217905550610aa7610aa28360000154612a17565b61287d565b8160020160009054906101000a900473ffffffffffffffffffffffffffffffffffffffff1673ffffffffffffffffffffffffffffffffffffffff168260010160009054906101000a900473ffffffffffffffffffffffffffffffffffffffff1673ffffffffffffffffffffffffffffffffffffffff1683600001547fb56d73308dd5ed79f768968659e0e7cc99ba3373f870b129d17e28cb2ac6d95960405160405180910390a4505050565b600063150b7a0260e01b9050949350505050565b610b718134612a7c565b610b7b6002612c3f565b81600001818152505033816020019073ffffffffffffffffffffffffffffffffffffffff16908173ffffffffffffffffffffffffffffffffffffffff168152505060008161010001906004811115610bd657610bd5614038565b5b90816004811115610bea57610be9614038565b5b815250508060c0015142610bfe9190614581565b8160c0018181525050428160e0018181525050600081608001516000015190506000826060015160000151905060008360800151602001511115610c7257610c7133308560800151602001518573ffffffffffffffffffffffffffffffffffffffff16612c4d909392919063ffffffff16565b5b600073ffffffffffffffffffffffffffffffffffffffff1683606001516000015173ffffffffffffffffffffffffffffffffffffffff1614610d26578073ffffffffffffffffffffffffffffffffffffffff166342842e0e33308660600151602001516040518463ffffffff1660e01b8152600401610cf39392919061454a565b600060405180830381600087803b158015610d0d57600080fd5b505af1158015610d21573d6000803e3d6000fd5b505050505b3460046000610d356002612c3f565b81526020019081526020016000206000828254610d529190614581565b925050819055508260016000610d686002612c3f565b81526020019081526020016000206000820151816000015560208201518160010160006101000a81548173ffffffffffffffffffffffffffffffffffffffff021916908373ffffffffffffffffffffffffffffffffffffffff16021790555060408201518160020160006101000a81548173ffffffffffffffffffffffffffffffffffffffff021916908373ffffffffffffffffffffffffffffffffffffffff16021790555060608201518160030160008201518160000160006101000a81548173ffffffffffffffffffffffffffffffffffffffff021916908373ffffffffffffffffffffffffffffffffffffffff1602179055506020820151816001015560408201518160020160006101000a81548173ffffffffffffffffffffffffffffffffffffffff021916908373ffffffffffffffffffffffffffffffffffffffff16021790555060608201518160030155505060808201518160070160008201518160000160006101000a81548173ffffffffffffffffffffffffffffffffffffffff021916908373ffffffffffffffffffffffffffffffffffffffff1602179055506020820151816001015560408201518160020160006101000a81548173ffffffffffffffffffffffffffffffffffffffff021916908373ffffffffffffffffffffffffffffffffffffffff16021790555060608201518160030155505060a082015181600b016000820151816000015560208201518160010155505060c082015181600d015560e082015181600e015561010082015181600f0160006101000a81548160ff02191690836004811115610fc757610fc6614038565b5b02179055509050506000803373ffffffffffffffffffffffffffffffffffffffff1673ffffffffffffffffffffffffffffffffffffffff1681526020019081526020016000206110176002612c3f565b9080600181540180825580915050600190039060005260206000200160009091909190915055600080846040015173ffffffffffffffffffffffffffffffffffffffff1673ffffffffffffffffffffffffffffffffffffffff1681526020019081526020016000206110896002612c3f565b908060018154018082558091505060019003906000526020600020016000909190919091505560036110bb6002612c3f565b9080600181540180825580915050600190039060005260206000200160009091909190915055826040015173ffffffffffffffffffffffffffffffffffffffff163373ffffffffffffffffffffffffffffffffffffffff1661111d6002612c3f565b7f9cf777ef8d920853772227176d5a18d6b577d1644b2b02949641f93317a21b2560405160405180910390a46111536002612cd6565b505050565b611160613874565b6001600083815260200190815260200160002060405180610120016040529081600082015481526020016001820160009054906101000a900473ffffffffffffffffffffffffffffffffffffffff1673ffffffffffffffffffffffffffffffffffffffff1673ffffffffffffffffffffffffffffffffffffffff1681526020016002820160009054906101000a900473ffffffffffffffffffffffffffffffffffffffff1673ffffffffffffffffffffffffffffffffffffffff1673ffffffffffffffffffffffffffffffffffffffff168152602001600382016040518060800160405290816000820160009054906101000a900473ffffffffffffffffffffffffffffffffffffffff1673ffffffffffffffffffffffffffffffffffffffff1673ffffffffffffffffffffffffffffffffffffffff168152602001600182015481526020016002820160009054906101000a900473ffffffffffffffffffffffffffffffffffffffff1673ffffffffffffffffffffffffffffffffffffffff1673ffffffffffffffffffffffffffffffffffffffff1681526020016003820154815250508152602001600782016040518060800160405290816000820160009054906101000a900473ffffffffffffffffffffffffffffffffffffffff1673ffffffffffffffffffffffffffffffffffffffff1673ffffffffffffffffffffffffffffffffffffffff168152602001600182015481526020016002820160009054906101000a900473ffffffffffffffffffffffffffffffffffffffff1673ffffffffffffffffffffffffffffffffffffffff1673ffffffffffffffffffffffffffffffffffffffff1681526020016003820154815250508152602001600b8201604051806040016040529081600082015481526020016001820154815250508152602001600d8201548152602001600e8201548152602001600f820160009054906101000a900460ff16600481111561143e5761143d614038565b5b60048111156114505761144f614038565b5b815250509050919050565b600060016000838152602001908152602001600020905060003390506117628260405180610120016040529081600082015481526020016001820160009054906101000a900473ffffffffffffffffffffffffffffffffffffffff1673ffffffffffffffffffffffffffffffffffffffff1673ffffffffffffffffffffffffffffffffffffffff1681526020016002820160009054906101000a900473ffffffffffffffffffffffffffffffffffffffff1673ffffffffffffffffffffffffffffffffffffffff1673ffffffffffffffffffffffffffffffffffffffff168152602001600382016040518060800160405290816000820160009054906101000a900473ffffffffffffffffffffffffffffffffffffffff1673ffffffffffffffffffffffffffffffffffffffff1673ffffffffffffffffffffffffffffffffffffffff168152602001600182015481526020016002820160009054906101000a900473ffffffffffffffffffffffffffffffffffffffff1673ffffffffffffffffffffffffffffffffffffffff1673ffffffffffffffffffffffffffffffffffffffff1681526020016003820154815250508152602001600782016040518060800160405290816000820160009054906101000a900473ffffffffffffffffffffffffffffffffffffffff1673ffffffffffffffffffffffffffffffffffffffff1673ffffffffffffffffffffffffffffffffffffffff168152602001600182015481526020016002820160009054906101000a900473ffffffffffffffffffffffffffffffffffffffff1673ffffffffffffffffffffffffffffffffffffffff1673ffffffffffffffffffffffffffffffffffffffff1681526020016003820154815250508152602001600b8201604051806040016040529081600082015481526020016001820154815250508152602001600d8201548152602001600e8201548152602001600f820160009054906101000a900460ff16600481111561174657611745614038565b5b600481111561175857611757614038565b5b8152505082612cec565b81600b0160000154471080611790575081600b01600001546004600085815260200190815260200160002054105b156117c7576040517ff4d678b800000000000000000000000000000000000000000000000000000000815260040160405180910390fd5b600082600701600101541115611855576118548260010160009054906101000a900473ffffffffffffffffffffffffffffffffffffffff1683600701600101548460070160000160009054906101000a900473ffffffffffffffffffffffffffffffffffffffff1673ffffffffffffffffffffffffffffffffffffffff166129919092919063ffffffff16565b5b600073ffffffffffffffffffffffffffffffffffffffff168260030160000160009054906101000a900473ffffffffffffffffffffffffffffffffffffffff1673ffffffffffffffffffffffffffffffffffffffff1614611972578160030160000160009054906101000a900473ffffffffffffffffffffffffffffffffffffffff1673ffffffffffffffffffffffffffffffffffffffff166342842e0e308460010160009054906101000a900473ffffffffffffffffffffffffffffffffffffffff1685600301600101546040518463ffffffff1660e01b815260040161193f9392919061454a565b600060405180830381600087803b15801561195957600080fd5b505af115801561196d573d6000803e3d6000fd5b505050505b600082600b016000015411156119f5578160010160009054906101000a900473ffffffffffffffffffffffffffffffffffffffff1673ffffffffffffffffffffffffffffffffffffffff166108fc83600b01600001549081150290604051600060405180830381858888f193505050501580156119f3573d6000803e3d6000fd5b505b81600b0160000154600460008581526020019081526020016000206000828254611a1f91906144be565b92505081905550600482600f0160006101000a81548160ff02191690836004811115611a4e57611a4d614038565b5b02179055508160020160009054906101000a900473ffffffffffffffffffffffffffffffffffffffff1673ffffffffffffffffffffffffffffffffffffffff168260010160009054906101000a900473ffffffffffffffffffffffffffffffffffffffff1673ffffffffffffffffffffffffffffffffffffffff1683600001547f54f902d6da0053700f4640a4799f5a079d7cf1e8bd83773f09e7cbc4afe07f3260405160405180910390a4505050565b60046020528060005260406000206000915090505481565b60038181548110611b2757600080fd5b906000526020600020016000915090505481565b60006020528160005260406000208181548110611b5757600080fd5b90600052602060002001600091509150505481565b60006001600083815260200190815260200160002060405180610120016040529081600082015481526020016001820160009054906101000a900473ffffffffffffffffffffffffffffffffffffffff1673ffffffffffffffffffffffffffffffffffffffff1673ffffffffffffffffffffffffffffffffffffffff1681526020016002820160009054906101000a900473ffffffffffffffffffffffffffffffffffffffff1673ffffffffffffffffffffffffffffffffffffffff1673ffffffffffffffffffffffffffffffffffffffff168152602001600382016040518060800160405290816000820160009054906101000a900473ffffffffffffffffffffffffffffffffffffffff1673ffffffffffffffffffffffffffffffffffffffff1673ffffffffffffffffffffffffffffffffffffffff168152602001600182015481526020016002820160009054906101000a900473ffffffffffffffffffffffffffffffffffffffff1673ffffffffffffffffffffffffffffffffffffffff1673ffffffffffffffffffffffffffffffffffffffff1681526020016003820154815250508152602001600782016040518060800160405290816000820160009054906101000a900473ffffffffffffffffffffffffffffffffffffffff1673ffffffffffffffffffffffffffffffffffffffff1673ffffffffffffffffffffffffffffffffffffffff168152602001600182015481526020016002820160009054906101000a900473ffffffffffffffffffffffffffffffffffffffff1673ffffffffffffffffffffffffffffffffffffffff1673ffffffffffffffffffffffffffffffffffffffff1681526020016003820154815250508152602001600b8201604051806040016040529081600082015481526020016001820154815250508152602001600d8201548152602001600e8201548152602001600f820160009054906101000a900460ff166004811115611e4c57611e4b614038565b5b6004811115611e5e57611e5d614038565b5b81525050905060006004811115611e7857611e77614038565b5b8161010001516004811115611e9057611e8f614038565b5b14611ec7576040517f1cf3d4b400000000000000000000000000000000000000000000000000000000815260040160405180910390fd5b60003390506000349050611edc838383612d70565b60008360800151606001511115611f2f57611f2e33846020015185608001516060015186608001516040015173ffffffffffffffffffffffffffffffffffffffff16612c4d909392919063ffffffff16565b5b600073ffffffffffffffffffffffffffffffffffffffff1683606001516040015173ffffffffffffffffffffffffffffffffffffffff1614611fef5782606001516040015173ffffffffffffffffffffffffffffffffffffffff166342842e0e3385602001518660600151606001516040518463ffffffff1660e01b8152600401611fbc9392919061454a565b600060405180830381600087803b158015611fd657600080fd5b505af1158015611fea573d6000803e3d6000fd5b505050505b60008360a0015160200151111561204c57826020015173ffffffffffffffffffffffffffffffffffffffff166108fc349081150290604051600060405180830381858888f1935050505015801561204a573d6000803e3d6000fd5b505b6000836080015160200151111561209d5761209c836040015184608001516020015185608001516000015173ffffffffffffffffffffffffffffffffffffffff166129919092919063ffffffff16565b5b600073ffffffffffffffffffffffffffffffffffffffff1683606001516000015173ffffffffffffffffffffffffffffffffffffffff161461215d5782606001516000015173ffffffffffffffffffffffffffffffffffffffff166342842e0e3085604001518660600151602001516040518463ffffffff1660e01b815260040161212a9392919061454a565b600060405180830381600087803b15801561214457600080fd5b505af1158015612158573d6000803e3d6000fd5b505050505b60008360a001516000015111156121c257826040015173ffffffffffffffffffffffffffffffffffffffff166108fc8460a00151600001519081150290604051600060405180830381858888f193505050501580156121c0573d6000803e3d6000fd5b505b8260a00151600001516004600086815260200190815260200160002060008282546121ed91906144be565b925050819055506001836101000190600481111561220e5761220d614038565b5b9081600481111561222257612221614038565b5b8152505061223b6122368460000151612a17565b61287d565b82600160008681526020019081526020016000206000820151816000015560208201518160010160006101000a81548173ffffffffffffffffffffffffffffffffffffffff021916908373ffffffffffffffffffffffffffffffffffffffff16021790555060408201518160020160006101000a81548173ffffffffffffffffffffffffffffffffffffffff021916908373ffffffffffffffffffffffffffffffffffffffff16021790555060608201518160030160008201518160000160006101000a81548173ffffffffffffffffffffffffffffffffffffffff021916908373ffffffffffffffffffffffffffffffffffffffff1602179055506020820151816001015560408201518160020160006101000a81548173ffffffffffffffffffffffffffffffffffffffff021916908373ffffffffffffffffffffffffffffffffffffffff16021790555060608201518160030155505060808201518160070160008201518160000160006101000a81548173ffffffffffffffffffffffffffffffffffffffff021916908373ffffffffffffffffffffffffffffffffffffffff1602179055506020820151816001015560408201518160020160006101000a81548173ffffffffffffffffffffffffffffffffffffffff021916908373ffffffffffffffffffffffffffffffffffffffff16021790555060608201518160030155505060a082015181600b016000820151816000015560208201518160010155505060c082015181600d015560e082015181600e015561010082015181600f0160006101000a81548160ff021916908360048111156124a05761249f614038565b5b0217905550905050826040015173ffffffffffffffffffffffffffffffffffffffff16836020015173ffffffffffffffffffffffffffffffffffffffff1684600001517f6c3d9a1d8eb570e3d57c3f743d0a44569c2320e6165f486950de7bb33a353fc860405160405180910390a450505050565b60016020528060005260406000206000915090508060000154908060010160009054906101000a900473ffffffffffffffffffffffffffffffffffffffff16908060020160009054906101000a900473ffffffffffffffffffffffffffffffffffffffff1690806003016040518060800160405290816000820160009054906101000a900473ffffffffffffffffffffffffffffffffffffffff1673ffffffffffffffffffffffffffffffffffffffff1673ffffffffffffffffffffffffffffffffffffffff168152602001600182015481526020016002820160009054906101000a900473ffffffffffffffffffffffffffffffffffffffff1673ffffffffffffffffffffffffffffffffffffffff1673ffffffffffffffffffffffffffffffffffffffff16815260200160038201548152505090806007016040518060800160405290816000820160009054906101000a900473ffffffffffffffffffffffffffffffffffffffff1673ffffffffffffffffffffffffffffffffffffffff1673ffffffffffffffffffffffffffffffffffffffff168152602001600182015481526020016002820160009054906101000a900473ffffffffffffffffffffffffffffffffffffffff1673ffffffffffffffffffffffffffffffffffffffff1673ffffffffffffffffffffffffffffffffffffffff1681526020016003820154815250509080600b01604051806040016040529081600082015481526020016001820154815250509080600d01549080600e01549080600f0160009054906101000a900460ff16905089565b600060016000838152602001908152602001600020600f0160009054906101000a900460ff169050919050565b60606000808373ffffffffffffffffffffffffffffffffffffffff1673ffffffffffffffffffffffffffffffffffffffff16815260200190815260200160002080548060200260200160405190810160405280929190818152602001828054801561281957602002820191906000526020600020905b815481526020019060010190808311612805575b50505050509050919050565b6060600380548060200260200160405190810160405280929190818152602001828054801561287357602002820191906000526020600020905b81548152602001906001019080831161285f575b5050505050905090565b600380549050811015612905576003600160038054905061289e91906144be565b815481106128af576128ae6144f2565b5b9060005260206000200154600382815481106128ce576128cd6144f2565b5b906000526020600020018190555060038054806128ee576128ed6145b5565b5b600190038181906000526020600020016000905590555b50565b6000600481111561291c5761291b614038565b5b826101000151600481111561293457612933614038565b5b1461296b576040517f1cf3d4b400000000000000000000000000000000000000000000000000000000815260040160405180910390fd5b61297e8260200151836040015183612de1565b5061298c8260c00151612e8d565b505050565b612a128363a9059cbb60e01b84846040516024016129b09291906145e4565b604051602081830303815290604052907bffffffffffffffffffffffffffffffffffffffffffffffffffffffff19166020820180517bffffffffffffffffffffffffffffffffffffffffffffffffffffffff8381831617835250505050612ed2565b505050565b600080600090505b600380549050811015612a6d578260038281548110612a4157612a406144f2565b5b906000526020600020015403612a5a5780915050612a77565b8080612a659061460d565b915050612a1f565b5060038054905090505b919050565b612a8533612f99565b50612a938260400151612f99565b50612aa2338360400151613009565b50612abd8260800151600001518360800151604001516130f0565b50612ad88260800151600001518360800151602001516131d7565b50612af38260800151604001518360800151606001516131d7565b50612b0f82606001516000015133846060015160200151613255565b50612b2a8260a00151600001518360a001516020015161337a565b50612b458260600151600001518360600151604001516133cc565b50612b60826080015160000151836060015160000151613009565b50612b7b826080015160000151836060015160400151613009565b50612b96826080015160400151836060015160000151613009565b50612bb1826080015160400151836060015160400151613009565b50612bd58260800151602001518360a00151600001518460600151600001516134af565b50612bf98260800151606001518360a00151602001518460600151604001516134af565b508160a00151600001518114612c3b576040517f30c7a58d00000000000000000000000000000000000000000000000000000000815260040160405180910390fd5b5050565b600081600001549050919050565b612cd0846323b872dd60e01b858585604051602401612c6e9392919061454a565b604051602081830303815290604052907bffffffffffffffffffffffffffffffffffffffffffffffffffffffff19166020820180517bffffffffffffffffffffffffffffffffffffffffffffffffffffffff8381831617835250505050612ed2565b50505050565b6001816000016000828254019250508190555050565b60036004811115612d0057612cff614038565b5b8261010001516004811115612d1857612d17614038565b5b14612d4f576040517f111eafa300000000000000000000000000000000000000000000000000000000815260040160405180910390fd5b612d5c8260c0015161353a565b50612d6b82602001518261357f565b505050565b612d7e8360400151836135f0565b50612d8c8360c00151612e8d565b50612dac8360600151604001518460400151856060015160600151613255565b50612dc883606001516000015130856060015160200151613255565b50612ddb818460a0015160200151613661565b50505050565b60008173ffffffffffffffffffffffffffffffffffffffff168473ffffffffffffffffffffffffffffffffffffffff1614158015612e4b57508173ffffffffffffffffffffffffffffffffffffffff168373ffffffffffffffffffffffffffffffffffffffff1614155b15612e82576040517f36deda8700000000000000000000000000000000000000000000000000000000815260040160405180910390fd5b600190509392505050565b600042821015612ec9576040517ffcdc12da00000000000000000000000000000000000000000000000000000000815260040160405180910390fd5b60019050919050565b6000612f34826040518060400160405280602081526020017f5361666545524332303a206c6f772d6c6576656c2063616c6c206661696c65648152508573ffffffffffffffffffffffffffffffffffffffff166136a79092919063ffffffff16565b9050600081511115612f945780806020019051810190612f54919061468d565b612f93576040517f08c379a0000000000000000000000000000000000000000000000000000000008152600401612f8a9061473d565b60405180910390fd5b5b505050565b60008073ffffffffffffffffffffffffffffffffffffffff168273ffffffffffffffffffffffffffffffffffffffff1603613000576040517fe6c4247b00000000000000000000000000000000000000000000000000000000815260040160405180910390fd5b60019050919050565b60008073ffffffffffffffffffffffffffffffffffffffff168373ffffffffffffffffffffffffffffffffffffffff161480156130725750600073ffffffffffffffffffffffffffffffffffffffff168273ffffffffffffffffffffffffffffffffffffffff16145b1561308057600190506130ea565b8173ffffffffffffffffffffffffffffffffffffffff168373ffffffffffffffffffffffffffffffffffffffff16036130e5576040517f9cbdca7200000000000000000000000000000000000000000000000000000000815260040160405180910390fd5b600190505b92915050565b60008073ffffffffffffffffffffffffffffffffffffffff168373ffffffffffffffffffffffffffffffffffffffff161480156131595750600073ffffffffffffffffffffffffffffffffffffffff168273ffffffffffffffffffffffffffffffffffffffff16145b1561316757600190506131d1565b8173ffffffffffffffffffffffffffffffffffffffff168373ffffffffffffffffffffffffffffffffffffffff16036131cc576040517f131b3bb000000000000000000000000000000000000000000000000000000000815260040160405180910390fd5b600190505b92915050565b60008073ffffffffffffffffffffffffffffffffffffffff168373ffffffffffffffffffffffffffffffffffffffff161480156132145750600082115b1561324b576040517ff1eabe0a00000000000000000000000000000000000000000000000000000000815260040160405180910390fd5b6001905092915050565b60008073ffffffffffffffffffffffffffffffffffffffff168473ffffffffffffffffffffffffffffffffffffffff161415801561333857508273ffffffffffffffffffffffffffffffffffffffff168473ffffffffffffffffffffffffffffffffffffffff16636352211e846040518263ffffffff1660e01b81526004016132de9190614194565b602060405180830381865afa1580156132fb573d6000803e3d6000fd5b505050506040513d601f19601f8201168201806040525081019061331f9190614772565b73ffffffffffffffffffffffffffffffffffffffff1614155b1561336f576040517f4b64ae4700000000000000000000000000000000000000000000000000000000815260040160405180910390fd5b600190509392505050565b6000808311801561338b5750600082115b156133c2576040517ff34cfab600000000000000000000000000000000000000000000000000000000815260040160405180910390fd5b6001905092915050565b60008073ffffffffffffffffffffffffffffffffffffffff168373ffffffffffffffffffffffffffffffffffffffff16141580156134375750600073ffffffffffffffffffffffffffffffffffffffff168273ffffffffffffffffffffffffffffffffffffffff1614155b801561346e57508173ffffffffffffffffffffffffffffffffffffffff168373ffffffffffffffffffffffffffffffffffffffff16145b156134a5576040517fc8d3926400000000000000000000000000000000000000000000000000000000815260040160405180910390fd5b6001905092915050565b600080841480156134c05750600083145b80156134f85750600073ffffffffffffffffffffffffffffffffffffffff168273ffffffffffffffffffffffffffffffffffffffff16145b1561352f576040517ff34cfab600000000000000000000000000000000000000000000000000000000815260040160405180910390fd5b600190509392505050565b600042821115613576576040517f111eafa300000000000000000000000000000000000000000000000000000000815260040160405180910390fd5b60019050919050565b60008173ffffffffffffffffffffffffffffffffffffffff168373ffffffffffffffffffffffffffffffffffffffff16146135e6576040517f85d1f72600000000000000000000000000000000000000000000000000000000815260040160405180910390fd5b6001905092915050565b60008173ffffffffffffffffffffffffffffffffffffffff168373ffffffffffffffffffffffffffffffffffffffff1614613657576040517f86efbb5500000000000000000000000000000000000000000000000000000000815260040160405180910390fd5b6001905092915050565b60008183101561369d576040517f30c7a58d00000000000000000000000000000000000000000000000000000000815260040160405180910390fd5b6001905092915050565b60606136b684846000856136bf565b90509392505050565b606082471015613704576040517f08c379a00000000000000000000000000000000000000000000000000000000081526004016136fb90614811565b60405180910390fd5b6000808673ffffffffffffffffffffffffffffffffffffffff16858760405161372d91906148a2565b60006040518083038185875af1925050503d806000811461376a576040519150601f19603f3d011682016040523d82523d6000602084013e61376f565b606091505b50915091506137808783838761378c565b92505050949350505050565b606083156137ee5760008351036137e6576137a685613801565b6137e5576040517f08c379a00000000000000000000000000000000000000000000000000000000081526004016137dc90614905565b60405180910390fd5b5b8290506137f9565b6137f88383613824565b5b949350505050565b6000808273ffffffffffffffffffffffffffffffffffffffff163b119050919050565b6000825111156138375781518083602001fd5b806040517f08c379a000000000000000000000000000000000000000000000000000000000815260040161386b9190614969565b60405180910390fd5b60405180610120016040528060008152602001600073ffffffffffffffffffffffffffffffffffffffff168152602001600073ffffffffffffffffffffffffffffffffffffffff1681526020016138c9613910565b81526020016138d6613964565b81526020016138e36139b8565b815260200160008152602001600081526020016000600481111561390a57613909614038565b5b81525090565b6040518060800160405280600073ffffffffffffffffffffffffffffffffffffffff16815260200160008152602001600073ffffffffffffffffffffffffffffffffffffffff168152602001600081525090565b6040518060800160405280600073ffffffffffffffffffffffffffffffffffffffff16815260200160008152602001600073ffffffffffffffffffffffffffffffffffffffff168152602001600081525090565b604051806040016040528060008152602001600081525090565b6000604051905090565b600080fd5b600080fd5b6000819050919050565b6139f9816139e6565b8114613a0457600080fd5b50565b600081359050613a16816139f0565b92915050565b600060208284031215613a3257613a316139dc565b5b6000613a4084828501613a07565b91505092915050565b600073ffffffffffffffffffffffffffffffffffffffff82169050919050565b6000613a7482613a49565b9050919050565b613a8481613a69565b8114613a8f57600080fd5b50565b600081359050613aa181613a7b565b92915050565b600080fd5b600080fd5b6000601f19601f8301169050919050565b7f4e487b7100000000000000000000000000000000000000000000000000000000600052604160045260246000fd5b613afa82613ab1565b810181811067ffffffffffffffff82111715613b1957613b18613ac2565b5b80604052505050565b6000613b2c6139d2565b9050613b388282613af1565b919050565b600067ffffffffffffffff821115613b5857613b57613ac2565b5b613b6182613ab1565b9050602081019050919050565b82818337600083830152505050565b6000613b90613b8b84613b3d565b613b22565b905082815260208101848484011115613bac57613bab613aac565b5b613bb7848285613b6e565b509392505050565b600082601f830112613bd457613bd3613aa7565b5b8135613be4848260208601613b7d565b91505092915050565b60008060008060808587031215613c0757613c066139dc565b5b6000613c1587828801613a92565b9450506020613c2687828801613a92565b9350506040613c3787828801613a07565b925050606085013567ffffffffffffffff811115613c5857613c576139e1565b5b613c6487828801613bbf565b91505092959194509250565b60007fffffffff0000000000000000000000000000000000000000000000000000000082169050919050565b613ca581613c70565b82525050565b6000602082019050613cc06000830184613c9c565b92915050565b600080fd5b600060808284031215613ce157613ce0613cc6565b5b613ceb6080613b22565b90506000613cfb84828501613a92565b6000830152506020613d0f84828501613a07565b6020830152506040613d2384828501613a92565b6040830152506060613d3784828501613a07565b60608301525092915050565b600060808284031215613d5957613d58613cc6565b5b613d636080613b22565b90506000613d7384828501613a92565b6000830152506020613d8784828501613a07565b6020830152506040613d9b84828501613a92565b6040830152506060613daf84828501613a07565b60608301525092915050565b600060408284031215613dd157613dd0613cc6565b5b613ddb6040613b22565b90506000613deb84828501613a07565b6000830152506020613dff84828501613a07565b60208301525092915050565b60058110613e1857600080fd5b50565b600081359050613e2a81613e0b565b92915050565b60006102008284031215613e4757613e46613cc6565b5b613e52610120613b22565b90506000613e6284828501613a07565b6000830152506020613e7684828501613a92565b6020830152506040613e8a84828501613a92565b6040830152506060613e9e84828501613ccb565b60608301525060e0613eb284828501613d43565b608083015250610160613ec784828501613dbb565b60a0830152506101a0613edc84828501613a07565b60c0830152506101c0613ef184828501613a07565b60e0830152506101e0613f0684828501613e1b565b6101008301525092915050565b60006102008284031215613f2a57613f296139dc565b5b6000613f3884828501613e30565b91505092915050565b613f4a816139e6565b82525050565b613f5981613a69565b82525050565b608082016000820151613f756000850182613f50565b506020820151613f886020850182613f41565b506040820151613f9b6040850182613f50565b506060820151613fae6060850182613f41565b50505050565b608082016000820151613fca6000850182613f50565b506020820151613fdd6020850182613f41565b506040820151613ff06040850182613f50565b5060608201516140036060850182613f41565b50505050565b60408201600082015161401f6000850182613f41565b5060208201516140326020850182613f41565b50505050565b7f4e487b7100000000000000000000000000000000000000000000000000000000600052602160045260246000fd5b6005811061407857614077614038565b5b50565b600081905061408982614067565b919050565b60006140998261407b565b9050919050565b6140a98161408e565b82525050565b610200820160008201516140c66000850182613f41565b5060208201516140d96020850182613f50565b5060408201516140ec6040850182613f50565b5060608201516140ff6060850182613f5f565b50608082015161411260e0850182613fb4565b5060a0820151614126610160850182614009565b5060c082015161413a6101a0850182613f41565b5060e082015161414e6101c0850182613f41565b506101008201516141636101e08501826140a0565b50505050565b60006102008201905061417f60008301846140af565b92915050565b61418e816139e6565b82525050565b60006020820190506141a96000830184614185565b92915050565b600080604083850312156141c6576141c56139dc565b5b60006141d485828601613a92565b92505060206141e585828601613a07565b9150509250929050565b6141f881613a69565b82525050565b6080820160008201516142146000850182613f50565b5060208201516142276020850182613f41565b50604082015161423a6040850182613f50565b50606082015161424d6060850182613f41565b50505050565b6080820160008201516142696000850182613f50565b50602082015161427c6020850182613f41565b50604082015161428f6040850182613f50565b5060608201516142a26060850182613f41565b50505050565b6040820160008201516142be6000850182613f41565b5060208201516142d16020850182613f41565b50505050565b6142e08161408e565b82525050565b6000610200820190506142fc600083018c614185565b614309602083018b6141ef565b614316604083018a6141ef565b61432360608301896141fe565b61433060e0830188614253565b61433e6101608301876142a8565b61434c6101a0830186614185565b61435a6101c0830185614185565b6143686101e08301846142d7565b9a9950505050505050505050565b600060208201905061438b60008301846142d7565b92915050565b6000602082840312156143a7576143a66139dc565b5b60006143b584828501613a92565b91505092915050565b600081519050919050565b600082825260208201905092915050565b6000819050602082019050919050565b60006143f68383613f41565b60208301905092915050565b6000602082019050919050565b600061441a826143be565b61442481856143c9565b935061442f836143da565b8060005b8381101561446057815161444788826143ea565b975061445283614402565b925050600181019050614433565b5085935050505092915050565b60006020820190508181036000830152614487818461440f565b905092915050565b7f4e487b7100000000000000000000000000000000000000000000000000000000600052601160045260246000fd5b60006144c9826139e6565b91506144d4836139e6565b92508282039050818111156144ec576144eb61448f565b5b92915050565b7f4e487b7100000000000000000000000000000000000000000000000000000000600052603260045260246000fd5b600061452c826139e6565b91506000820361453f5761453e61448f565b5b600182039050919050565b600060608201905061455f60008301866141ef565b61456c60208301856141ef565b6145796040830184614185565b949350505050565b600061458c826139e6565b9150614597836139e6565b92508282019050808211156145af576145ae61448f565b5b92915050565b7f4e487b7100000000000000000000000000000000000000000000000000000000600052603160045260246000fd5b60006040820190506145f960008301856141ef565b6146066020830184614185565b9392505050565b6000614618826139e6565b91507fffffffffffffffffffffffffffffffffffffffffffffffffffffffffffffffff820361464a5761464961448f565b5b600182019050919050565b60008115159050919050565b61466a81614655565b811461467557600080fd5b50565b60008151905061468781614661565b92915050565b6000602082840312156146a3576146a26139dc565b5b60006146b184828501614678565b91505092915050565b600082825260208201905092915050565b7f5361666545524332303a204552433230206f7065726174696f6e20646964206e60008201527f6f74207375636365656400000000000000000000000000000000000000000000602082015250565b6000614727602a836146ba565b9150614732826146cb565b604082019050919050565b600060208201905081810360008301526147568161471a565b9050919050565b60008151905061476c81613a7b565b92915050565b600060208284031215614788576147876139dc565b5b60006147968482850161475d565b91505092915050565b7f416464726573733a20696e73756666696369656e742062616c616e636520666f60008201527f722063616c6c0000000000000000000000000000000000000000000000000000602082015250565b60006147fb6026836146ba565b91506148068261479f565b604082019050919050565b6000602082019050818103600083015261482a816147ee565b9050919050565b600081519050919050565b600081905092915050565b60005b8381101561486557808201518184015260208101905061484a565b60008484015250505050565b600061487c82614831565b614886818561483c565b9350614896818560208601614847565b80840191505092915050565b60006148ae8284614871565b915081905092915050565b7f416464726573733a2063616c6c20746f206e6f6e2d636f6e7472616374000000600082015250565b60006148ef601d836146ba565b91506148fa826148b9565b602082019050919050565b6000602082019050818103600083015261491e816148e2565b9050919050565b600081519050919050565b600061493b82614925565b61494581856146ba565b9350614955818560208601614847565b61495e81613ab1565b840191505092915050565b600060208201905081810360008301526149838184614930565b90509291505056fea2646970667358221220f522a56e76fec71325265e44c216624519d84a5585f147b2e17723ab4b25fae364736f6c63430008110033",
  "devdoc": {
    "author": "- @Mr-Biskit, @pokhrelanmol, @mengiefen, @Rushikesh0125 and @NicoTollenaar",
    "details": "- All function calls are currently implemented without side effects The contract uses OpenZeppelin's contracts for ERC20 and ERC721 to handle token transfers. The contract also uses its own libraries for trade validation, security functions and the Trade Data Structure.",
    "kind": "dev",
    "methods": {
      "addTrade((uint256,address,address,(address,uint256,address,uint256),(address,uint256,address,uint256),(uint256,uint256),uint256,uint256,uint8))": {
        "details": "- The trade is created by the seller, takes the trade data as input and transfers the tokens, NFTs or ETH to the contract.  The trade is then added to the state variables and the trade ID is incremented.",
        "params": {
          "transactionInput": "- The trade data"
        }
      },
      "cancelTrade(uint256)": {
        "details": "- The trade is canceled by the seller, takes the trade ID as input and transfers the tokens, NFTs or ETH back to the seller.",
        "params": {
          "_tradeID": "- The trade ID"
        }
      },
      "checkExpiredTrades()": {
        "details": "- Checks if a trade is expired and updates the trade status"
      },
      "confirmTrade(uint256)": {
        "details": "- The trade is confirmed by the buyer, takes the trade ID as input and transfers the tokens, NFTs or ETH to the seller. The tokens, NFT or ETH is transferred to the buyer from the contract.",
        "params": {
          "_tradeID": "- The trade ID"
        }
      },
      "onERC721Received(address,address,uint256,bytes)": {
        "details": "See {IERC721Receiver-onERC721Received}. Always returns `IERC721Receiver.onERC721Received.selector`."
      },
      "withdraw(uint256)": {
        "details": "- Withdraws the asset from the contract, takes the trade ID as input and transfers the tokens, NFTs or ETH to the seller.",
        "params": {
          "_tradeID": "- The trade ID"
        }
      }
    },
    "title": "TrustMe - A decentralized settlement platform for ETH, ERC20 tokens and ERC721 NFTs",
    "version": 1
  },
  "userdoc": {
    "kind": "user",
    "methods": {
      "addTrade((uint256,address,address,(address,uint256,address,uint256),(address,uint256,address,uint256),(uint256,uint256),uint256,uint256,uint8))": {
        "notice": "- Creates a new trade"
      },
      "cancelTrade(uint256)": {
        "notice": "- Cancels a trade"
      },
      "checkExpiredTrades()": {
        "notice": "- Checks if a trade is expired"
      },
      "confirmTrade(uint256)": {
        "notice": "- Confirms a trade"
      },
      "withdraw(uint256)": {
        "notice": "- Withdraws the asset from the contract"
      }
    },
    "notice": "- Use this contract to create, confirm, cancel and withdraw settlements",
    "version": 1
  },
  "storageLayout": {
    "storage": [
      {
        "astId": 1001,
        "contract": "contracts/TrustMe.sol:TrustMe",
        "label": "userToTradesIDs",
        "offset": 0,
        "slot": "0",
        "type": "t_mapping(t_address,t_array(t_uint256)dyn_storage)"
      },
      {
        "astId": 1006,
        "contract": "contracts/TrustMe.sol:TrustMe",
        "label": "tradeIDToTrade",
        "offset": 0,
        "slot": "1",
        "type": "t_mapping(t_uint256,t_struct(Trade)2251_storage)"
      },
      {
        "astId": 1009,
        "contract": "contracts/TrustMe.sol:TrustMe",
        "label": "_tradeId",
        "offset": 0,
        "slot": "2",
        "type": "t_struct(Counter)891_storage"
      },
      {
        "astId": 1012,
        "contract": "contracts/TrustMe.sol:TrustMe",
        "label": "pendingTradesIDs",
        "offset": 0,
        "slot": "3",
        "type": "t_array(t_uint256)dyn_storage"
      },
      {
        "astId": 1016,
        "contract": "contracts/TrustMe.sol:TrustMe",
        "label": "tradeIdToETHFromSeller",
        "offset": 0,
        "slot": "4",
        "type": "t_mapping(t_uint256,t_uint256)"
      }
    ],
    "types": {
      "t_address": {
        "encoding": "inplace",
        "label": "address",
        "numberOfBytes": "20"
      },
      "t_array(t_uint256)dyn_storage": {
        "base": "t_uint256",
        "encoding": "dynamic_array",
        "label": "uint256[]",
        "numberOfBytes": "32"
      },
      "t_enum(TradeStatus)2228": {
        "encoding": "inplace",
        "label": "enum TradeLib.TradeStatus",
        "numberOfBytes": "1"
      },
      "t_mapping(t_address,t_array(t_uint256)dyn_storage)": {
        "encoding": "mapping",
        "key": "t_address",
        "label": "mapping(address => uint256[])",
        "numberOfBytes": "32",
        "value": "t_array(t_uint256)dyn_storage"
      },
      "t_mapping(t_uint256,t_struct(Trade)2251_storage)": {
        "encoding": "mapping",
        "key": "t_uint256",
        "label": "mapping(uint256 => struct TradeLib.Trade)",
        "numberOfBytes": "32",
        "value": "t_struct(Trade)2251_storage"
      },
      "t_mapping(t_uint256,t_uint256)": {
        "encoding": "mapping",
        "key": "t_uint256",
        "label": "mapping(uint256 => uint256)",
        "numberOfBytes": "32",
        "value": "t_uint256"
      },
      "t_struct(Counter)891_storage": {
        "encoding": "inplace",
        "label": "struct Counters.Counter",
        "members": [
          {
            "astId": 890,
            "contract": "contracts/TrustMe.sol:TrustMe",
            "label": "_value",
            "offset": 0,
            "slot": "0",
            "type": "t_uint256"
          }
        ],
        "numberOfBytes": "32"
      },
      "t_struct(Eth)2222_storage": {
        "encoding": "inplace",
        "label": "struct TradeLib.Eth",
        "members": [
          {
            "astId": 2219,
            "contract": "contracts/TrustMe.sol:TrustMe",
            "label": "amountOfETHToSell",
            "offset": 0,
            "slot": "0",
            "type": "t_uint256"
          },
          {
            "astId": 2221,
            "contract": "contracts/TrustMe.sol:TrustMe",
            "label": "amountOfETHToBuy",
            "offset": 0,
            "slot": "1",
            "type": "t_uint256"
          }
        ],
        "numberOfBytes": "64"
      },
      "t_struct(NFT)2208_storage": {
        "encoding": "inplace",
        "label": "struct TradeLib.NFT",
        "members": [
          {
            "astId": 2201,
            "contract": "contracts/TrustMe.sol:TrustMe",
            "label": "addressNFTToSell",
            "offset": 0,
            "slot": "0",
            "type": "t_address"
          },
          {
            "astId": 2203,
            "contract": "contracts/TrustMe.sol:TrustMe",
            "label": "tokenIdNFTToSell",
            "offset": 0,
            "slot": "1",
            "type": "t_uint256"
          },
          {
            "astId": 2205,
            "contract": "contracts/TrustMe.sol:TrustMe",
            "label": "addressNFTToBuy",
            "offset": 0,
            "slot": "2",
            "type": "t_address"
          },
          {
            "astId": 2207,
            "contract": "contracts/TrustMe.sol:TrustMe",
            "label": "tokenIdNFTToBuy",
            "offset": 0,
            "slot": "3",
            "type": "t_uint256"
          }
        ],
        "numberOfBytes": "128"
      },
      "t_struct(Token)2217_storage": {
        "encoding": "inplace",
        "label": "struct TradeLib.Token",
        "members": [
          {
            "astId": 2210,
            "contract": "contracts/TrustMe.sol:TrustMe",
            "label": "tokenToSell",
            "offset": 0,
            "slot": "0",
            "type": "t_address"
          },
          {
            "astId": 2212,
            "contract": "contracts/TrustMe.sol:TrustMe",
            "label": "amountOfTokenToSell",
            "offset": 0,
            "slot": "1",
            "type": "t_uint256"
          },
          {
            "astId": 2214,
            "contract": "contracts/TrustMe.sol:TrustMe",
            "label": "tokenToBuy",
            "offset": 0,
            "slot": "2",
            "type": "t_address"
          },
          {
            "astId": 2216,
            "contract": "contracts/TrustMe.sol:TrustMe",
            "label": "amountOfTokenToBuy",
            "offset": 0,
            "slot": "3",
            "type": "t_uint256"
          }
        ],
        "numberOfBytes": "128"
      },
      "t_struct(Trade)2251_storage": {
        "encoding": "inplace",
        "label": "struct TradeLib.Trade",
        "members": [
          {
            "astId": 2230,
            "contract": "contracts/TrustMe.sol:TrustMe",
            "label": "tradeId",
            "offset": 0,
            "slot": "0",
            "type": "t_uint256"
          },
          {
            "astId": 2232,
            "contract": "contracts/TrustMe.sol:TrustMe",
            "label": "seller",
            "offset": 0,
            "slot": "1",
            "type": "t_address"
          },
          {
            "astId": 2234,
            "contract": "contracts/TrustMe.sol:TrustMe",
            "label": "buyer",
            "offset": 0,
            "slot": "2",
            "type": "t_address"
          },
          {
            "astId": 2237,
            "contract": "contracts/TrustMe.sol:TrustMe",
            "label": "nft",
            "offset": 0,
            "slot": "3",
            "type": "t_struct(NFT)2208_storage"
          },
          {
            "astId": 2240,
            "contract": "contracts/TrustMe.sol:TrustMe",
            "label": "token",
            "offset": 0,
            "slot": "7",
            "type": "t_struct(Token)2217_storage"
          },
          {
            "astId": 2243,
            "contract": "contracts/TrustMe.sol:TrustMe",
            "label": "eth",
            "offset": 0,
            "slot": "11",
            "type": "t_struct(Eth)2222_storage"
          },
          {
            "astId": 2245,
            "contract": "contracts/TrustMe.sol:TrustMe",
            "label": "deadline",
            "offset": 0,
            "slot": "13",
            "type": "t_uint256"
          },
          {
            "astId": 2247,
            "contract": "contracts/TrustMe.sol:TrustMe",
            "label": "dateCreated",
            "offset": 0,
            "slot": "14",
            "type": "t_uint256"
          },
          {
            "astId": 2250,
            "contract": "contracts/TrustMe.sol:TrustMe",
            "label": "status",
            "offset": 0,
            "slot": "15",
            "type": "t_enum(TradeStatus)2228"
          }
        ],
        "numberOfBytes": "512"
      },
      "t_uint256": {
        "encoding": "inplace",
        "label": "uint256",
        "numberOfBytes": "32"
      }
    }
  }
}