{
  "address": "0xF112F9D64Db9BE8F33Ee2e49c625EB564e58a25E",
  "abi": [
    {
      "inputs": [],
      "name": "CannotTradeSameToken",
      "type": "error"
    },
    {
      "inputs": [],
      "name": "CannotTradeWithSelf",
      "type": "error"
    },
    {
      "inputs": [],
      "name": "InsufficientAllowance",
      "type": "error"
    },
    {
      "inputs": [],
      "name": "InsufficientBalance",
      "type": "error"
    },
    {
      "inputs": [],
      "name": "InvalidAddress",
      "type": "error"
    },
    {
      "inputs": [],
      "name": "InvalidAmount",
      "type": "error"
    },
    {
      "inputs": [],
      "name": "OnlyBuyer",
      "type": "error"
    },
    {
      "inputs": [],
      "name": "OnlySeller",
      "type": "error"
    },
    {
      "inputs": [],
      "name": "TradeIsExpired",
      "type": "error"
    },
    {
      "inputs": [],
      "name": "TradeIsNotExpired",
      "type": "error"
    },
    {
      "inputs": [],
      "name": "TradeIsNotPending",
      "type": "error"
    },
    {
      "anonymous": false,
      "inputs": [
        {
          "indexed": true,
          "internalType": "uint256",
          "name": "tradeID",
          "type": "uint256"
        },
        {
          "indexed": true,
          "internalType": "address",
          "name": "seller",
          "type": "address"
        },
        {
          "indexed": true,
          "internalType": "address",
          "name": "buyer",
          "type": "address"
        }
      ],
      "name": "TradeCanceled",
      "type": "event"
    },
    {
      "anonymous": false,
      "inputs": [
        {
          "indexed": true,
          "internalType": "uint256",
          "name": "tradeID",
          "type": "uint256"
        },
        {
          "indexed": true,
          "internalType": "address",
          "name": "seller",
          "type": "address"
        },
        {
          "indexed": true,
          "internalType": "address",
          "name": "buyer",
          "type": "address"
        }
      ],
      "name": "TradeConfirmed",
      "type": "event"
    },
    {
      "anonymous": false,
      "inputs": [
        {
          "indexed": true,
          "internalType": "uint256",
          "name": "tradeID",
          "type": "uint256"
        },
        {
          "indexed": true,
          "internalType": "address",
          "name": "seller",
          "type": "address"
        },
        {
          "indexed": true,
          "internalType": "address",
          "name": "buyer",
          "type": "address"
        }
      ],
      "name": "TradeCreated",
      "type": "event"
    },
    {
      "anonymous": false,
      "inputs": [
        {
          "indexed": true,
          "internalType": "uint256",
          "name": "tradeID",
          "type": "uint256"
        },
        {
          "indexed": true,
          "internalType": "address",
          "name": "seller",
          "type": "address"
        },
        {
          "indexed": true,
          "internalType": "address",
          "name": "buyer",
          "type": "address"
        }
      ],
      "name": "TradeExpired",
      "type": "event"
    },
    {
      "anonymous": false,
      "inputs": [
        {
          "indexed": true,
          "internalType": "uint256",
          "name": "tradeID",
          "type": "uint256"
        },
        {
          "indexed": true,
          "internalType": "address",
          "name": "seller",
          "type": "address"
        },
        {
          "indexed": true,
          "internalType": "address",
          "name": "buyer",
          "type": "address"
        }
      ],
      "name": "TradeWithdrawn",
      "type": "event"
    },
    {
      "inputs": [
        {
          "internalType": "address",
          "name": "_buyer",
          "type": "address"
        },
        {
          "internalType": "address",
          "name": "_tokenToSell",
          "type": "address"
        },
        {
          "internalType": "address",
          "name": "_tokenToBuy",
          "type": "address"
        },
        {
          "internalType": "uint256",
          "name": "_amountOfTokenToSell",
          "type": "uint256"
        },
        {
          "internalType": "uint256",
          "name": "_amountOfTokenToBuy",
          "type": "uint256"
        },
        {
          "internalType": "uint256",
          "name": "_tradePeriod",
          "type": "uint256"
        }
      ],
      "name": "addTrade",
      "outputs": [],
      "stateMutability": "nonpayable",
      "type": "function"
    },
    {
      "inputs": [
        {
          "internalType": "uint256",
          "name": "_tradeID",
          "type": "uint256"
        }
      ],
      "name": "cancelTrade",
      "outputs": [],
      "stateMutability": "nonpayable",
      "type": "function"
    },
    {
      "inputs": [],
      "name": "checkExpiredTrades",
      "outputs": [],
      "stateMutability": "nonpayable",
      "type": "function"
    },
    {
      "inputs": [
        {
          "internalType": "uint256",
          "name": "_tradeID",
          "type": "uint256"
        }
      ],
      "name": "confirmTrade",
      "outputs": [],
      "stateMutability": "nonpayable",
      "type": "function"
    },
    {
      "inputs": [],
      "name": "getPendingTradesIDs",
      "outputs": [
        {
          "internalType": "uint256[]",
          "name": "",
          "type": "uint256[]"
        }
      ],
      "stateMutability": "view",
      "type": "function"
    },
    {
      "inputs": [
        {
          "internalType": "uint256",
          "name": "_tradeID",
          "type": "uint256"
        }
      ],
      "name": "getTrade",
      "outputs": [
        {
          "components": [
            {
              "internalType": "uint256",
              "name": "id",
              "type": "uint256"
            },
            {
              "internalType": "address",
              "name": "seller",
              "type": "address"
            },
            {
              "internalType": "address",
              "name": "buyer",
              "type": "address"
            },
            {
              "internalType": "address",
              "name": "tokenToSell",
              "type": "address"
            },
            {
              "internalType": "address",
              "name": "tokenToBuy",
              "type": "address"
            },
            {
              "internalType": "uint256",
              "name": "amountOfTokenToSell",
              "type": "uint256"
            },
            {
              "internalType": "uint256",
              "name": "amountOfTokenToBuy",
              "type": "uint256"
            },
            {
              "internalType": "uint256",
              "name": "deadline",
              "type": "uint256"
            },
            {
              "internalType": "enum TrustMe.TradeStatus",
              "name": "status",
              "type": "uint8"
            }
          ],
          "internalType": "struct TrustMe.Trade",
          "name": "",
          "type": "tuple"
        }
      ],
      "stateMutability": "view",
      "type": "function"
    },
    {
      "inputs": [
        {
          "internalType": "uint256",
          "name": "_tradeID",
          "type": "uint256"
        }
      ],
      "name": "getTradeStatus",
      "outputs": [
        {
          "internalType": "enum TrustMe.TradeStatus",
          "name": "",
          "type": "uint8"
        }
      ],
      "stateMutability": "view",
      "type": "function"
    },
    {
      "inputs": [
        {
          "internalType": "address",
          "name": "_user",
          "type": "address"
        }
      ],
      "name": "getTradesIDsByUser",
      "outputs": [
        {
          "internalType": "uint256[]",
          "name": "",
          "type": "uint256[]"
        }
      ],
      "stateMutability": "view",
      "type": "function"
    },
    {
      "inputs": [
        {
          "internalType": "uint256",
          "name": "",
          "type": "uint256"
        }
      ],
      "name": "pendingTradesIDs",
      "outputs": [
        {
          "internalType": "uint256",
          "name": "",
          "type": "uint256"
        }
      ],
      "stateMutability": "view",
      "type": "function"
    },
    {
      "inputs": [
        {
          "internalType": "uint256",
          "name": "",
          "type": "uint256"
        }
      ],
      "name": "tradeIDToTrade",
      "outputs": [
        {
          "internalType": "uint256",
          "name": "id",
          "type": "uint256"
        },
        {
          "internalType": "address",
          "name": "seller",
          "type": "address"
        },
        {
          "internalType": "address",
          "name": "buyer",
          "type": "address"
        },
        {
          "internalType": "address",
          "name": "tokenToSell",
          "type": "address"
        },
        {
          "internalType": "address",
          "name": "tokenToBuy",
          "type": "address"
        },
        {
          "internalType": "uint256",
          "name": "amountOfTokenToSell",
          "type": "uint256"
        },
        {
          "internalType": "uint256",
          "name": "amountOfTokenToBuy",
          "type": "uint256"
        },
        {
          "internalType": "uint256",
          "name": "deadline",
          "type": "uint256"
        },
        {
          "internalType": "enum TrustMe.TradeStatus",
          "name": "status",
          "type": "uint8"
        }
      ],
      "stateMutability": "view",
      "type": "function"
    },
    {
      "inputs": [
        {
          "internalType": "address",
          "name": "",
          "type": "address"
        },
        {
          "internalType": "uint256",
          "name": "",
          "type": "uint256"
        }
      ],
      "name": "userToTradesIDs",
      "outputs": [
        {
          "internalType": "uint256",
          "name": "",
          "type": "uint256"
        }
      ],
      "stateMutability": "view",
      "type": "function"
    },
    {
      "inputs": [
        {
          "internalType": "uint256",
          "name": "_tradeID",
          "type": "uint256"
        }
      ],
      "name": "withdraw",
      "outputs": [],
      "stateMutability": "nonpayable",
      "type": "function"
    }
  ],
  "transactionHash": "0x02960589b4794cf4f8c4395525322d1b9921509e598a851fd786d0b5a1a15d31",
  "args": [],
  "numDeployments": 1,
  "solcInputHash": "6d6ee06346165dbf4ebd4a684f8b749b",
  "bytecode": "0x608060405234801561001057600080fd5b50613043806100206000396000f3fe608060405234801561001057600080fd5b50600436106100b45760003560e01c806381e622641161007157806381e622641461018b5780639ec0507f146101a7578063a25e4fb2146101c3578063b36e88ba146101fb578063f3c8dd281461022b578063f5ff35671461025b576100b4565b806304ecba17146100b957806309ec6cc7146100c35780632db25e05146100df5780632e1a7d4d1461010f5780633cbc720b1461012b5780636a4167271461015b575b600080fd5b6100c1610279565b005b6100dd60048036038101906100d89190612637565b6103ca565b005b6100f960048036038101906100f49190612637565b610927565b60405161010691906127e2565b60405180910390f35b61012960048036038101906101249190612637565b610b10565b005b61014560048036038101906101409190612637565b61101a565b604051610152919061280d565b60405180910390f35b61017560048036038101906101709190612854565b61103e565b604051610182919061280d565b60405180910390f35b6101a560048036038101906101a09190612894565b61106f565b005b6101c160048036038101906101bc9190612637565b611818565b005b6101dd60048036038101906101d89190612637565b611e6b565b6040516101f29998979695949392919061293f565b60405180910390f35b61021560048036038101906102109190612637565b611f46565b60405161022291906129cc565b60405180910390f35b610245600480360381019061024091906129e7565b611f73565b6040516102529190612ac3565b60405180910390f35b610263612009565b6040516102709190612ac3565b60405180910390f35b60005b6003805490508110156103c757600060016000600384815481106102a3576102a2612ae5565b5b906000526020600020015481526020019081526020016000209050428160070154116103b35760038160080160006101000a81548160ff021916908360048111156102f1576102f06126b4565b5b021790555061030b6103068260000154612061565b6120c6565b8060020160009054906101000a900473ffffffffffffffffffffffffffffffffffffffff1673ffffffffffffffffffffffffffffffffffffffff168160010160009054906101000a900473ffffffffffffffffffffffffffffffffffffffff1673ffffffffffffffffffffffffffffffffffffffff1682600001547ffd7c45a041dff86f1992d67f3be178d8c527a53bef9d9c6fe1901411b9da156460405160405180910390a45b5080806103bf90612b43565b91505061027c565b50565b60006001600083815260200190815260200160002060405180610120016040529081600082015481526020016001820160009054906101000a900473ffffffffffffffffffffffffffffffffffffffff1673ffffffffffffffffffffffffffffffffffffffff1673ffffffffffffffffffffffffffffffffffffffff1681526020016002820160009054906101000a900473ffffffffffffffffffffffffffffffffffffffff1673ffffffffffffffffffffffffffffffffffffffff1673ffffffffffffffffffffffffffffffffffffffff1681526020016003820160009054906101000a900473ffffffffffffffffffffffffffffffffffffffff1673ffffffffffffffffffffffffffffffffffffffff1673ffffffffffffffffffffffffffffffffffffffff1681526020016004820160009054906101000a900473ffffffffffffffffffffffffffffffffffffffff1673ffffffffffffffffffffffffffffffffffffffff1673ffffffffffffffffffffffffffffffffffffffff1681526020016005820154815260200160068201548152602001600782015481526020016008820160009054906101000a900460ff1660048111156105905761058f6126b4565b5b60048111156105a2576105a16126b4565b5b815250509050600060048111156105bc576105bb6126b4565b5b81610100015160048111156105d4576105d36126b4565b5b1461060b576040517f1cf3d4b400000000000000000000000000000000000000000000000000000000815260040160405180910390fd5b3373ffffffffffffffffffffffffffffffffffffffff16816020015173ffffffffffffffffffffffffffffffffffffffff1614610674576040517f85d1f72600000000000000000000000000000000000000000000000000000000815260040160405180910390fd5b428160e0015110156106b2576040517ffcdc12da00000000000000000000000000000000000000000000000000000000815260040160405180910390fd5b6106e981602001518260a00151836060015173ffffffffffffffffffffffffffffffffffffffff1661217f9092919063ffffffff16565b60028161010001906004811115610703576107026126b4565b5b90816004811115610717576107166126b4565b5b8152505061073061072b8260000151612061565b6120c6565b80600160008481526020019081526020016000206000820151816000015560208201518160010160006101000a81548173ffffffffffffffffffffffffffffffffffffffff021916908373ffffffffffffffffffffffffffffffffffffffff16021790555060408201518160020160006101000a81548173ffffffffffffffffffffffffffffffffffffffff021916908373ffffffffffffffffffffffffffffffffffffffff16021790555060608201518160030160006101000a81548173ffffffffffffffffffffffffffffffffffffffff021916908373ffffffffffffffffffffffffffffffffffffffff16021790555060808201518160040160006101000a81548173ffffffffffffffffffffffffffffffffffffffff021916908373ffffffffffffffffffffffffffffffffffffffff16021790555060a0820151816005015560c0820151816006015560e082015181600701556101008201518160080160006101000a81548160ff021916908360048111156108b4576108b36126b4565b5b0217905550905050806040015173ffffffffffffffffffffffffffffffffffffffff16816020015173ffffffffffffffffffffffffffffffffffffffff1682600001517fb56d73308dd5ed79f768968659e0e7cc99ba3373f870b129d17e28cb2ac6d95960405160405180910390a45050565b61092f612546565b6001600083815260200190815260200160002060405180610120016040529081600082015481526020016001820160009054906101000a900473ffffffffffffffffffffffffffffffffffffffff1673ffffffffffffffffffffffffffffffffffffffff1673ffffffffffffffffffffffffffffffffffffffff1681526020016002820160009054906101000a900473ffffffffffffffffffffffffffffffffffffffff1673ffffffffffffffffffffffffffffffffffffffff1673ffffffffffffffffffffffffffffffffffffffff1681526020016003820160009054906101000a900473ffffffffffffffffffffffffffffffffffffffff1673ffffffffffffffffffffffffffffffffffffffff1673ffffffffffffffffffffffffffffffffffffffff1681526020016004820160009054906101000a900473ffffffffffffffffffffffffffffffffffffffff1673ffffffffffffffffffffffffffffffffffffffff1673ffffffffffffffffffffffffffffffffffffffff1681526020016005820154815260200160068201548152602001600782015481526020016008820160009054906101000a900460ff166004811115610af357610af26126b4565b5b6004811115610b0557610b046126b4565b5b815250509050919050565b60006001600083815260200190815260200160002060405180610120016040529081600082015481526020016001820160009054906101000a900473ffffffffffffffffffffffffffffffffffffffff1673ffffffffffffffffffffffffffffffffffffffff1673ffffffffffffffffffffffffffffffffffffffff1681526020016002820160009054906101000a900473ffffffffffffffffffffffffffffffffffffffff1673ffffffffffffffffffffffffffffffffffffffff1673ffffffffffffffffffffffffffffffffffffffff1681526020016003820160009054906101000a900473ffffffffffffffffffffffffffffffffffffffff1673ffffffffffffffffffffffffffffffffffffffff1673ffffffffffffffffffffffffffffffffffffffff1681526020016004820160009054906101000a900473ffffffffffffffffffffffffffffffffffffffff1673ffffffffffffffffffffffffffffffffffffffff1673ffffffffffffffffffffffffffffffffffffffff1681526020016005820154815260200160068201548152602001600782015481526020016008820160009054906101000a900460ff166004811115610cd657610cd56126b4565b5b6004811115610ce857610ce76126b4565b5b81525050905060036004811115610d0257610d016126b4565b5b8161010001516004811115610d1a57610d196126b4565b5b14610d51576040517f111eafa300000000000000000000000000000000000000000000000000000000815260040160405180910390fd5b3373ffffffffffffffffffffffffffffffffffffffff16816020015173ffffffffffffffffffffffffffffffffffffffff1614610dba576040517f85d1f72600000000000000000000000000000000000000000000000000000000815260040160405180910390fd5b610df181602001518260a00151836060015173ffffffffffffffffffffffffffffffffffffffff1661217f9092919063ffffffff16565b60048161010001906004811115610e0b57610e0a6126b4565b5b90816004811115610e1f57610e1e6126b4565b5b8152505080600160008481526020019081526020016000206000820151816000015560208201518160010160006101000a81548173ffffffffffffffffffffffffffffffffffffffff021916908373ffffffffffffffffffffffffffffffffffffffff16021790555060408201518160020160006101000a81548173ffffffffffffffffffffffffffffffffffffffff021916908373ffffffffffffffffffffffffffffffffffffffff16021790555060608201518160030160006101000a81548173ffffffffffffffffffffffffffffffffffffffff021916908373ffffffffffffffffffffffffffffffffffffffff16021790555060808201518160040160006101000a81548173ffffffffffffffffffffffffffffffffffffffff021916908373ffffffffffffffffffffffffffffffffffffffff16021790555060a0820151816005015560c0820151816006015560e082015181600701556101008201518160080160006101000a81548160ff02191690836004811115610fa757610fa66126b4565b5b0217905550905050806040015173ffffffffffffffffffffffffffffffffffffffff16816020015173ffffffffffffffffffffffffffffffffffffffff1682600001517f54f902d6da0053700f4640a4799f5a079d7cf1e8bd83773f09e7cbc4afe07f3260405160405180910390a45050565b6003818154811061102a57600080fd5b906000526020600020016000915090505481565b6000602052816000526040600020818154811061105a57600080fd5b90600052602060002001600091509150505481565b8585858585600073ffffffffffffffffffffffffffffffffffffffff163373ffffffffffffffffffffffffffffffffffffffff16036110da576040517fe6c4247b00000000000000000000000000000000000000000000000000000000815260040160405180910390fd5b600073ffffffffffffffffffffffffffffffffffffffff168573ffffffffffffffffffffffffffffffffffffffff1603611140576040517fe6c4247b00000000000000000000000000000000000000000000000000000000815260040160405180910390fd5b600073ffffffffffffffffffffffffffffffffffffffff168473ffffffffffffffffffffffffffffffffffffffff16036111a6576040517fe6c4247b00000000000000000000000000000000000000000000000000000000815260040160405180910390fd5b600073ffffffffffffffffffffffffffffffffffffffff168373ffffffffffffffffffffffffffffffffffffffff160361120c576040517fe6c4247b00000000000000000000000000000000000000000000000000000000815260040160405180910390fd5b8273ffffffffffffffffffffffffffffffffffffffff168473ffffffffffffffffffffffffffffffffffffffff1603611271576040517f131b3bb000000000000000000000000000000000000000000000000000000000815260040160405180910390fd5b8473ffffffffffffffffffffffffffffffffffffffff163373ffffffffffffffffffffffffffffffffffffffff16036112d6576040517f9cbdca7200000000000000000000000000000000000000000000000000000000815260040160405180910390fd5b60008203611310576040517f2c5211c600000000000000000000000000000000000000000000000000000000815260040160405180910390fd5b6000810361134a576040517f2c5211c600000000000000000000000000000000000000000000000000000000815260040160405180910390fd5b818473ffffffffffffffffffffffffffffffffffffffff166370a08231336040518263ffffffff1660e01b81526004016113849190612b8b565b602060405180830381865afa1580156113a1573d6000803e3d6000fd5b505050506040513d601f19601f820116820180604052508101906113c59190612bbb565b10156113fd576040517ff4d678b800000000000000000000000000000000000000000000000000000000815260040160405180910390fd5b6000864261140b9190612be8565b905060008b905061143f33308c8473ffffffffffffffffffffffffffffffffffffffff16612205909392919063ffffffff16565b6000604051806101200160405280611457600261228e565b81526020013373ffffffffffffffffffffffffffffffffffffffff1681526020018f73ffffffffffffffffffffffffffffffffffffffff1681526020018e73ffffffffffffffffffffffffffffffffffffffff1681526020018d73ffffffffffffffffffffffffffffffffffffffff1681526020018c81526020018b8152602001848152602001600060048111156114f2576114f16126b4565b5b81525090508060016000611506600261228e565b81526020019081526020016000206000820151816000015560208201518160010160006101000a81548173ffffffffffffffffffffffffffffffffffffffff021916908373ffffffffffffffffffffffffffffffffffffffff16021790555060408201518160020160006101000a81548173ffffffffffffffffffffffffffffffffffffffff021916908373ffffffffffffffffffffffffffffffffffffffff16021790555060608201518160030160006101000a81548173ffffffffffffffffffffffffffffffffffffffff021916908373ffffffffffffffffffffffffffffffffffffffff16021790555060808201518160040160006101000a81548173ffffffffffffffffffffffffffffffffffffffff021916908373ffffffffffffffffffffffffffffffffffffffff16021790555060a0820151816005015560c0820151816006015560e082015181600701556101008201518160080160006101000a81548160ff02191690836004811115611684576116836126b4565b5b02179055509050506000803373ffffffffffffffffffffffffffffffffffffffff1673ffffffffffffffffffffffffffffffffffffffff1681526020019081526020016000206116d4600261228e565b90806001815401808255809150506001900390600052602060002001600090919091909150556000808f73ffffffffffffffffffffffffffffffffffffffff1673ffffffffffffffffffffffffffffffffffffffff168152602001908152602001600020611742600261228e565b90806001815401808255809150506001900390600052602060002001600090919091909150556003611774600261228e565b90806001815401808255809150506001900390600052602060002001600090919091909150558d73ffffffffffffffffffffffffffffffffffffffff163373ffffffffffffffffffffffffffffffffffffffff166117d2600261228e565b7f9cf777ef8d920853772227176d5a18d6b577d1644b2b02949641f93317a21b2560405160405180910390a4611808600261229c565b5050505050505050505050505050565b60006001600083815260200190815260200160002060405180610120016040529081600082015481526020016001820160009054906101000a900473ffffffffffffffffffffffffffffffffffffffff1673ffffffffffffffffffffffffffffffffffffffff1673ffffffffffffffffffffffffffffffffffffffff1681526020016002820160009054906101000a900473ffffffffffffffffffffffffffffffffffffffff1673ffffffffffffffffffffffffffffffffffffffff1673ffffffffffffffffffffffffffffffffffffffff1681526020016003820160009054906101000a900473ffffffffffffffffffffffffffffffffffffffff1673ffffffffffffffffffffffffffffffffffffffff1673ffffffffffffffffffffffffffffffffffffffff1681526020016004820160009054906101000a900473ffffffffffffffffffffffffffffffffffffffff1673ffffffffffffffffffffffffffffffffffffffff1673ffffffffffffffffffffffffffffffffffffffff1681526020016005820154815260200160068201548152602001600782015481526020016008820160009054906101000a900460ff1660048111156119de576119dd6126b4565b5b60048111156119f0576119ef6126b4565b5b81525050905060006004811115611a0a57611a096126b4565b5b8161010001516004811115611a2257611a216126b4565b5b14611a59576040517f1cf3d4b400000000000000000000000000000000000000000000000000000000815260040160405180910390fd5b3373ffffffffffffffffffffffffffffffffffffffff16816040015173ffffffffffffffffffffffffffffffffffffffff1614611ac2576040517f86efbb5500000000000000000000000000000000000000000000000000000000815260040160405180910390fd5b428160e001511015611b00576040517ffcdc12da00000000000000000000000000000000000000000000000000000000815260040160405180910390fd5b8060c00151816080015173ffffffffffffffffffffffffffffffffffffffff1663dd62ed3e33306040518363ffffffff1660e01b8152600401611b44929190612c1c565b602060405180830381865afa158015611b61573d6000803e3d6000fd5b505050506040513d601f19601f82011682018060405250810190611b859190612bbb565b1015611bbd576040517f13be252b00000000000000000000000000000000000000000000000000000000815260040160405180910390fd5b611bf63382602001518360c00151846080015173ffffffffffffffffffffffffffffffffffffffff16612205909392919063ffffffff16565b611c2d81604001518260a00151836060015173ffffffffffffffffffffffffffffffffffffffff1661217f9092919063ffffffff16565b60018161010001906004811115611c4757611c466126b4565b5b90816004811115611c5b57611c5a6126b4565b5b81525050611c74611c6f8260000151612061565b6120c6565b80600160008481526020019081526020016000206000820151816000015560208201518160010160006101000a81548173ffffffffffffffffffffffffffffffffffffffff021916908373ffffffffffffffffffffffffffffffffffffffff16021790555060408201518160020160006101000a81548173ffffffffffffffffffffffffffffffffffffffff021916908373ffffffffffffffffffffffffffffffffffffffff16021790555060608201518160030160006101000a81548173ffffffffffffffffffffffffffffffffffffffff021916908373ffffffffffffffffffffffffffffffffffffffff16021790555060808201518160040160006101000a81548173ffffffffffffffffffffffffffffffffffffffff021916908373ffffffffffffffffffffffffffffffffffffffff16021790555060a0820151816005015560c0820151816006015560e082015181600701556101008201518160080160006101000a81548160ff02191690836004811115611df857611df76126b4565b5b0217905550905050806040015173ffffffffffffffffffffffffffffffffffffffff16816020015173ffffffffffffffffffffffffffffffffffffffff1682600001517f6c3d9a1d8eb570e3d57c3f743d0a44569c2320e6165f486950de7bb33a353fc860405160405180910390a45050565b60016020528060005260406000206000915090508060000154908060010160009054906101000a900473ffffffffffffffffffffffffffffffffffffffff16908060020160009054906101000a900473ffffffffffffffffffffffffffffffffffffffff16908060030160009054906101000a900473ffffffffffffffffffffffffffffffffffffffff16908060040160009054906101000a900473ffffffffffffffffffffffffffffffffffffffff16908060050154908060060154908060070154908060080160009054906101000a900460ff16905089565b60006001600083815260200190815260200160002060080160009054906101000a900460ff169050919050565b60606000808373ffffffffffffffffffffffffffffffffffffffff1673ffffffffffffffffffffffffffffffffffffffff168152602001908152602001600020805480602002602001604051908101604052809291908181526020018280548015611ffd57602002820191906000526020600020905b815481526020019060010190808311611fe9575b50505050509050919050565b6060600380548060200260200160405190810160405280929190818152602001828054801561205757602002820191906000526020600020905b815481526020019060010190808311612043575b5050505050905090565b600080600090505b6003805490508110156120b757826003828154811061208b5761208a612ae5565b5b9060005260206000200154036120a457809150506120c1565b80806120af90612b43565b915050612069565b5060038054905090505b919050565b60038054905081101561217c5760008190505b60016003805490506120eb9190612c45565b8110156121525760036001826121019190612be8565b8154811061211257612111612ae5565b5b90600052602060002001546003828154811061213157612130612ae5565b5b9060005260206000200181905550808061214a90612b43565b9150506120d9565b50600380548061216557612164612c79565b5b600190038181906000526020600020016000905590555b50565b6122008363a9059cbb60e01b848460405160240161219e929190612ca8565b604051602081830303815290604052907bffffffffffffffffffffffffffffffffffffffffffffffffffffffff19166020820180517bffffffffffffffffffffffffffffffffffffffffffffffffffffffff83818316178352505050506122b2565b505050565b612288846323b872dd60e01b85858560405160240161222693929190612cd1565b604051602081830303815290604052907bffffffffffffffffffffffffffffffffffffffffffffffffffffffff19166020820180517bffffffffffffffffffffffffffffffffffffffffffffffffffffffff83818316178352505050506122b2565b50505050565b600081600001549050919050565b6001816000016000828254019250508190555050565b6000612314826040518060400160405280602081526020017f5361666545524332303a206c6f772d6c6576656c2063616c6c206661696c65648152508573ffffffffffffffffffffffffffffffffffffffff166123799092919063ffffffff16565b905060008151111561237457808060200190518101906123349190612d40565b612373576040517f08c379a000000000000000000000000000000000000000000000000000000000815260040161236a90612df0565b60405180910390fd5b5b505050565b60606123888484600085612391565b90509392505050565b6060824710156123d6576040517f08c379a00000000000000000000000000000000000000000000000000000000081526004016123cd90612e82565b60405180910390fd5b6000808673ffffffffffffffffffffffffffffffffffffffff1685876040516123ff9190612f13565b60006040518083038185875af1925050503d806000811461243c576040519150601f19603f3d011682016040523d82523d6000602084013e612441565b606091505b50915091506124528783838761245e565b92505050949350505050565b606083156124c05760008351036124b857612478856124d3565b6124b7576040517f08c379a00000000000000000000000000000000000000000000000000000000081526004016124ae90612f76565b60405180910390fd5b5b8290506124cb565b6124ca83836124f6565b5b949350505050565b6000808273ffffffffffffffffffffffffffffffffffffffff163b119050919050565b6000825111156125095781518083602001fd5b806040517f08c379a000000000000000000000000000000000000000000000000000000000815260040161253d9190612feb565b60405180910390fd5b60405180610120016040528060008152602001600073ffffffffffffffffffffffffffffffffffffffff168152602001600073ffffffffffffffffffffffffffffffffffffffff168152602001600073ffffffffffffffffffffffffffffffffffffffff168152602001600073ffffffffffffffffffffffffffffffffffffffff168152602001600081526020016000815260200160008152602001600060048111156125f6576125f56126b4565b5b81525090565b600080fd5b6000819050919050565b61261481612601565b811461261f57600080fd5b50565b6000813590506126318161260b565b92915050565b60006020828403121561264d5761264c6125fc565b5b600061265b84828501612622565b91505092915050565b61266d81612601565b82525050565b600073ffffffffffffffffffffffffffffffffffffffff82169050919050565b600061269e82612673565b9050919050565b6126ae81612693565b82525050565b7f4e487b7100000000000000000000000000000000000000000000000000000000600052602160045260246000fd5b600581106126f4576126f36126b4565b5b50565b6000819050612705826126e3565b919050565b6000612715826126f7565b9050919050565b6127258161270a565b82525050565b610120820160008201516127426000850182612664565b50602082015161275560208501826126a5565b50604082015161276860408501826126a5565b50606082015161277b60608501826126a5565b50608082015161278e60808501826126a5565b5060a08201516127a160a0850182612664565b5060c08201516127b460c0850182612664565b5060e08201516127c760e0850182612664565b506101008201516127dc61010085018261271c565b50505050565b6000610120820190506127f8600083018461272b565b92915050565b61280781612601565b82525050565b600060208201905061282260008301846127fe565b92915050565b61283181612693565b811461283c57600080fd5b50565b60008135905061284e81612828565b92915050565b6000806040838503121561286b5761286a6125fc565b5b60006128798582860161283f565b925050602061288a85828601612622565b9150509250929050565b60008060008060008060c087890312156128b1576128b06125fc565b5b60006128bf89828a0161283f565b96505060206128d089828a0161283f565b95505060406128e189828a0161283f565b94505060606128f289828a01612622565b935050608061290389828a01612622565b92505060a061291489828a01612622565b9150509295509295509295565b61292a81612693565b82525050565b6129398161270a565b82525050565b600061012082019050612955600083018c6127fe565b612962602083018b612921565b61296f604083018a612921565b61297c6060830189612921565b6129896080830188612921565b61299660a08301876127fe565b6129a360c08301866127fe565b6129b060e08301856127fe565b6129be610100830184612930565b9a9950505050505050505050565b60006020820190506129e16000830184612930565b92915050565b6000602082840312156129fd576129fc6125fc565b5b6000612a0b8482850161283f565b91505092915050565b600081519050919050565b600082825260208201905092915050565b6000819050602082019050919050565b6000612a4c8383612664565b60208301905092915050565b6000602082019050919050565b6000612a7082612a14565b612a7a8185612a1f565b9350612a8583612a30565b8060005b83811015612ab6578151612a9d8882612a40565b9750612aa883612a58565b925050600181019050612a89565b5085935050505092915050565b60006020820190508181036000830152612add8184612a65565b905092915050565b7f4e487b7100000000000000000000000000000000000000000000000000000000600052603260045260246000fd5b7f4e487b7100000000000000000000000000000000000000000000000000000000600052601160045260246000fd5b6000612b4e82612601565b91507fffffffffffffffffffffffffffffffffffffffffffffffffffffffffffffffff8203612b8057612b7f612b14565b5b600182019050919050565b6000602082019050612ba06000830184612921565b92915050565b600081519050612bb58161260b565b92915050565b600060208284031215612bd157612bd06125fc565b5b6000612bdf84828501612ba6565b91505092915050565b6000612bf382612601565b9150612bfe83612601565b9250828201905080821115612c1657612c15612b14565b5b92915050565b6000604082019050612c316000830185612921565b612c3e6020830184612921565b9392505050565b6000612c5082612601565b9150612c5b83612601565b9250828203905081811115612c7357612c72612b14565b5b92915050565b7f4e487b7100000000000000000000000000000000000000000000000000000000600052603160045260246000fd5b6000604082019050612cbd6000830185612921565b612cca60208301846127fe565b9392505050565b6000606082019050612ce66000830186612921565b612cf36020830185612921565b612d0060408301846127fe565b949350505050565b60008115159050919050565b612d1d81612d08565b8114612d2857600080fd5b50565b600081519050612d3a81612d14565b92915050565b600060208284031215612d5657612d556125fc565b5b6000612d6484828501612d2b565b91505092915050565b600082825260208201905092915050565b7f5361666545524332303a204552433230206f7065726174696f6e20646964206e60008201527f6f74207375636365656400000000000000000000000000000000000000000000602082015250565b6000612dda602a83612d6d565b9150612de582612d7e565b604082019050919050565b60006020820190508181036000830152612e0981612dcd565b9050919050565b7f416464726573733a20696e73756666696369656e742062616c616e636520666f60008201527f722063616c6c0000000000000000000000000000000000000000000000000000602082015250565b6000612e6c602683612d6d565b9150612e7782612e10565b604082019050919050565b60006020820190508181036000830152612e9b81612e5f565b9050919050565b600081519050919050565b600081905092915050565b60005b83811015612ed6578082015181840152602081019050612ebb565b60008484015250505050565b6000612eed82612ea2565b612ef78185612ead565b9350612f07818560208601612eb8565b80840191505092915050565b6000612f1f8284612ee2565b915081905092915050565b7f416464726573733a2063616c6c20746f206e6f6e2d636f6e7472616374000000600082015250565b6000612f60601d83612d6d565b9150612f6b82612f2a565b602082019050919050565b60006020820190508181036000830152612f8f81612f53565b9050919050565b600081519050919050565b6000601f19601f8301169050919050565b6000612fbd82612f96565b612fc78185612d6d565b9350612fd7818560208601612eb8565b612fe081612fa1565b840191505092915050565b600060208201905081810360008301526130058184612fb2565b90509291505056fea2646970667358221220e5ed59027092e8f4db7fd429030136488843da3eea8c9173c98571ad1ab4802564736f6c63430008110033",
  "devdoc": {
    "kind": "dev",
    "methods": {},
    "version": 1
  },
  "userdoc": {
    "kind": "user",
    "methods": {},
    "version": 1
  },
  "storageLayout": {
    "storage": [
      {
        "astId": 1553,
        "contract": "contracts/TrustMe.sol:TrustMe",
        "label": "userToTradesIDs",
        "offset": 0,
        "slot": "0",
        "type": "t_mapping(t_address,t_array(t_uint256)dyn_storage)"
      },
      {
        "astId": 1558,
        "contract": "contracts/TrustMe.sol:TrustMe",
        "label": "tradeIDToTrade",
        "offset": 0,
        "slot": "1",
        "type": "t_mapping(t_uint256,t_struct(Trade)1548_storage)"
      },
      {
        "astId": 1561,
        "contract": "contracts/TrustMe.sol:TrustMe",
        "label": "_tradeId",
        "offset": 0,
        "slot": "2",
        "type": "t_struct(Counter)1364_storage"
      },
      {
        "astId": 1564,
        "contract": "contracts/TrustMe.sol:TrustMe",
        "label": "pendingTradesIDs",
        "offset": 0,
        "slot": "3",
        "type": "t_array(t_uint256)dyn_storage"
      }
    ],
    "types": {
      "t_address": {
        "encoding": "inplace",
        "label": "address",
        "numberOfBytes": "20"
      },
      "t_array(t_uint256)dyn_storage": {
        "base": "t_uint256",
        "encoding": "dynamic_array",
        "label": "uint256[]",
        "numberOfBytes": "32"
      },
      "t_enum(TradeStatus)1528": {
        "encoding": "inplace",
        "label": "enum TrustMe.TradeStatus",
        "numberOfBytes": "1"
      },
      "t_mapping(t_address,t_array(t_uint256)dyn_storage)": {
        "encoding": "mapping",
        "key": "t_address",
        "label": "mapping(address => uint256[])",
        "numberOfBytes": "32",
        "value": "t_array(t_uint256)dyn_storage"
      },
      "t_mapping(t_uint256,t_struct(Trade)1548_storage)": {
        "encoding": "mapping",
        "key": "t_uint256",
        "label": "mapping(uint256 => struct TrustMe.Trade)",
        "numberOfBytes": "32",
        "value": "t_struct(Trade)1548_storage"
      },
      "t_struct(Counter)1364_storage": {
        "encoding": "inplace",
        "label": "struct Counters.Counter",
        "members": [
          {
            "astId": 1363,
            "contract": "contracts/TrustMe.sol:TrustMe",
            "label": "_value",
            "offset": 0,
            "slot": "0",
            "type": "t_uint256"
          }
        ],
        "numberOfBytes": "32"
      },
      "t_struct(Trade)1548_storage": {
        "encoding": "inplace",
        "label": "struct TrustMe.Trade",
        "members": [
          {
            "astId": 1530,
            "contract": "contracts/TrustMe.sol:TrustMe",
            "label": "id",
            "offset": 0,
            "slot": "0",
            "type": "t_uint256"
          },
          {
            "astId": 1532,
            "contract": "contracts/TrustMe.sol:TrustMe",
            "label": "seller",
            "offset": 0,
            "slot": "1",
            "type": "t_address"
          },
          {
            "astId": 1534,
            "contract": "contracts/TrustMe.sol:TrustMe",
            "label": "buyer",
            "offset": 0,
            "slot": "2",
            "type": "t_address"
          },
          {
            "astId": 1536,
            "contract": "contracts/TrustMe.sol:TrustMe",
            "label": "tokenToSell",
            "offset": 0,
            "slot": "3",
            "type": "t_address"
          },
          {
            "astId": 1538,
            "contract": "contracts/TrustMe.sol:TrustMe",
            "label": "tokenToBuy",
            "offset": 0,
            "slot": "4",
            "type": "t_address"
          },
          {
            "astId": 1540,
            "contract": "contracts/TrustMe.sol:TrustMe",
            "label": "amountOfTokenToSell",
            "offset": 0,
            "slot": "5",
            "type": "t_uint256"
          },
          {
            "astId": 1542,
            "contract": "contracts/TrustMe.sol:TrustMe",
            "label": "amountOfTokenToBuy",
            "offset": 0,
            "slot": "6",
            "type": "t_uint256"
          },
          {
            "astId": 1544,
            "contract": "contracts/TrustMe.sol:TrustMe",
            "label": "deadline",
            "offset": 0,
            "slot": "7",
            "type": "t_uint256"
          },
          {
            "astId": 1547,
            "contract": "contracts/TrustMe.sol:TrustMe",
            "label": "status",
            "offset": 0,
            "slot": "8",
            "type": "t_enum(TradeStatus)1528"
          }
        ],
        "numberOfBytes": "288"
      },
      "t_uint256": {
        "encoding": "inplace",
        "label": "uint256",
        "numberOfBytes": "32"
      }
    }
  }
}